{
  "address": "0x1234BeF650D916c2cC2cF098a8264626C478B3f7",
  "abi": [
    {
      "inputs": [
        {
          "internalType": "address",
          "name": "_manager",
          "type": "address"
        },
        {
          "internalType": "uint32",
          "name": "_drawId",
          "type": "uint32"
        },
        {
          "internalType": "string",
          "name": "_betCoin",
          "type": "string"
        },
        {
          "internalType": "uint256",
          "name": "_beaconPeriodStart",
          "type": "uint256"
        },
        {
          "internalType": "uint32",
          "name": "_drawPeriodSeconds",
          "type": "uint32"
        }
      ],
      "stateMutability": "nonpayable",
      "type": "constructor"
    },
    {
      "anonymous": false,
      "inputs": [
        {
          "indexed": true,
          "internalType": "address",
          "name": "user",
          "type": "address"
        },
        {
          "indexed": true,
          "internalType": "uint32",
          "name": "drawId",
          "type": "uint32"
        },
        {
          "indexed": false,
          "internalType": "uint256",
          "name": "payout",
          "type": "uint256"
        }
      ],
      "name": "ClaimedDraw",
      "type": "event"
    },
    {
      "anonymous": false,
      "inputs": [
        {
          "indexed": true,
          "internalType": "address",
          "name": "user",
          "type": "address"
        },
        {
          "indexed": true,
          "internalType": "contract ITicket",
          "name": "token",
          "type": "address"
        },
        {
          "indexed": false,
          "internalType": "uint256",
          "name": "amount",
          "type": "uint256"
        }
      ],
      "name": "Deposited",
      "type": "event"
    },
    {
      "anonymous": false,
      "inputs": [
        {
          "indexed": true,
          "internalType": "address",
          "name": "previousOwner",
          "type": "address"
        },
        {
          "indexed": true,
          "internalType": "address",
          "name": "newOwner",
          "type": "address"
        }
      ],
      "name": "OwnershipTransferred",
      "type": "event"
    },
    {
      "anonymous": false,
      "inputs": [
        {
          "indexed": true,
          "internalType": "uint32",
          "name": "drawId",
          "type": "uint32"
        },
        {
          "indexed": false,
          "internalType": "uint8",
          "name": "result",
          "type": "uint8"
        }
      ],
      "name": "ResultSet",
      "type": "event"
    },
    {
      "anonymous": false,
      "inputs": [
        {
          "indexed": true,
          "internalType": "bytes32",
          "name": "role",
          "type": "bytes32"
        },
        {
          "indexed": true,
          "internalType": "bytes32",
          "name": "previousAdminRole",
          "type": "bytes32"
        },
        {
          "indexed": true,
          "internalType": "bytes32",
          "name": "newAdminRole",
          "type": "bytes32"
        }
      ],
      "name": "RoleAdminChanged",
      "type": "event"
    },
    {
      "anonymous": false,
      "inputs": [
        {
          "indexed": true,
          "internalType": "bytes32",
          "name": "role",
          "type": "bytes32"
        },
        {
          "indexed": true,
          "internalType": "address",
          "name": "account",
          "type": "address"
        },
        {
          "indexed": true,
          "internalType": "address",
          "name": "sender",
          "type": "address"
        }
      ],
      "name": "RoleGranted",
      "type": "event"
    },
    {
      "anonymous": false,
      "inputs": [
        {
          "indexed": true,
          "internalType": "bytes32",
          "name": "role",
          "type": "bytes32"
        },
        {
          "indexed": true,
          "internalType": "address",
          "name": "account",
          "type": "address"
        },
        {
          "indexed": true,
          "internalType": "address",
          "name": "sender",
          "type": "address"
        }
      ],
      "name": "RoleRevoked",
      "type": "event"
    },
    {
      "inputs": [],
      "name": "DEFAULT_ADMIN_ROLE",
      "outputs": [
        {
          "internalType": "bytes32",
          "name": "",
          "type": "bytes32"
        }
      ],
      "stateMutability": "view",
      "type": "function"
    },
    {
      "inputs": [],
      "name": "MANAGER_ROLE",
      "outputs": [
        {
          "internalType": "bytes32",
          "name": "",
          "type": "bytes32"
        }
      ],
      "stateMutability": "view",
      "type": "function"
    },
    {
      "inputs": [],
      "name": "TIERS_LENGTH",
      "outputs": [
        {
          "internalType": "uint8",
          "name": "",
          "type": "uint8"
        }
      ],
      "stateMutability": "view",
      "type": "function"
    },
    {
      "inputs": [],
      "name": "VERSION",
      "outputs": [
        {
          "internalType": "string",
          "name": "",
          "type": "string"
        }
      ],
      "stateMutability": "view",
      "type": "function"
    },
    {
      "inputs": [],
      "name": "balance",
      "outputs": [
        {
          "internalType": "uint256",
          "name": "",
          "type": "uint256"
        }
      ],
      "stateMutability": "view",
      "type": "function"
    },
    {
      "inputs": [],
      "name": "claim",
      "outputs": [
        {
          "internalType": "uint256",
          "name": "",
          "type": "uint256"
        }
      ],
      "stateMutability": "nonpayable",
      "type": "function"
    },
    {
      "inputs": [
        {
          "internalType": "bool",
          "name": "_bet",
          "type": "bool"
        }
      ],
      "name": "depositTo",
      "outputs": [],
      "stateMutability": "payable",
      "type": "function"
    },
    {
      "inputs": [],
      "name": "drawPeriodEndAt",
      "outputs": [
        {
          "internalType": "uint256",
          "name": "",
          "type": "uint256"
        }
      ],
      "stateMutability": "view",
      "type": "function"
    },
    {
      "inputs": [],
      "name": "drawRemainingSeconds",
      "outputs": [
        {
          "internalType": "uint256",
          "name": "",
          "type": "uint256"
        }
      ],
      "stateMutability": "view",
      "type": "function"
    },
    {
      "inputs": [
        {
          "internalType": "bool",
          "name": "_bet",
          "type": "bool"
        }
      ],
      "name": "getAccountedBalance",
      "outputs": [
        {
          "internalType": "uint256",
          "name": "",
          "type": "uint256"
        }
      ],
      "stateMutability": "view",
      "type": "function"
    },
    {
      "inputs": [],
      "name": "getBetCoin",
      "outputs": [
        {
          "internalType": "string",
          "name": "",
          "type": "string"
        }
      ],
      "stateMutability": "view",
      "type": "function"
    },
    {
      "inputs": [],
      "name": "getDrawId",
      "outputs": [
        {
          "internalType": "uint32",
          "name": "",
          "type": "uint32"
        }
      ],
      "stateMutability": "view",
      "type": "function"
    },
    {
      "inputs": [],
      "name": "getResults",
      "outputs": [
        {
          "internalType": "uint8[]",
          "name": "",
          "type": "uint8[]"
        }
      ],
      "stateMutability": "view",
      "type": "function"
    },
    {
      "inputs": [
        {
          "internalType": "bytes32",
          "name": "role",
          "type": "bytes32"
        }
      ],
      "name": "getRoleAdmin",
      "outputs": [
        {
          "internalType": "bytes32",
          "name": "",
          "type": "bytes32"
        }
      ],
      "stateMutability": "view",
      "type": "function"
    },
    {
      "inputs": [
        {
          "internalType": "bool",
          "name": "_bet",
          "type": "bool"
        }
      ],
      "name": "getTicket",
      "outputs": [
        {
          "internalType": "contract ITicket",
          "name": "",
          "type": "address"
        }
      ],
      "stateMutability": "view",
      "type": "function"
    },
    {
      "inputs": [
        {
          "internalType": "bytes32",
          "name": "role",
          "type": "bytes32"
        },
        {
          "internalType": "address",
          "name": "account",
          "type": "address"
        }
      ],
      "name": "grantRole",
      "outputs": [],
      "stateMutability": "nonpayable",
      "type": "function"
    },
    {
      "inputs": [
        {
          "internalType": "bytes32",
          "name": "role",
          "type": "bytes32"
        },
        {
          "internalType": "address",
          "name": "account",
          "type": "address"
        }
      ],
      "name": "hasRole",
      "outputs": [
        {
          "internalType": "bool",
          "name": "",
          "type": "bool"
        }
      ],
      "stateMutability": "view",
      "type": "function"
    },
    {
      "inputs": [],
      "name": "isDrawOver",
      "outputs": [
        {
          "internalType": "bool",
          "name": "",
          "type": "bool"
        }
      ],
      "stateMutability": "view",
      "type": "function"
    },
    {
      "inputs": [],
      "name": "owner",
      "outputs": [
        {
          "internalType": "address",
          "name": "",
          "type": "address"
        }
      ],
      "stateMutability": "view",
      "type": "function"
    },
    {
      "inputs": [
        {
          "internalType": "uint8",
          "name": "_result",
          "type": "uint8"
        }
      ],
      "name": "pushResult",
      "outputs": [
        {
          "internalType": "bool",
          "name": "",
          "type": "bool"
        }
      ],
      "stateMutability": "nonpayable",
      "type": "function"
    },
    {
      "inputs": [],
      "name": "renounceOwnership",
      "outputs": [],
      "stateMutability": "nonpayable",
      "type": "function"
    },
    {
      "inputs": [
        {
          "internalType": "bytes32",
          "name": "role",
          "type": "bytes32"
        },
        {
          "internalType": "address",
          "name": "account",
          "type": "address"
        }
      ],
      "name": "renounceRole",
      "outputs": [],
      "stateMutability": "nonpayable",
      "type": "function"
    },
    {
      "inputs": [
        {
          "internalType": "bytes32",
          "name": "role",
          "type": "bytes32"
        },
        {
          "internalType": "address",
          "name": "account",
          "type": "address"
        }
      ],
      "name": "revokeRole",
      "outputs": [],
      "stateMutability": "nonpayable",
      "type": "function"
    },
    {
      "inputs": [
        {
          "internalType": "contract ITicket",
          "name": "_yesTicket",
          "type": "address"
        },
        {
          "internalType": "contract ITicket",
          "name": "_noTicket",
          "type": "address"
        }
      ],
      "name": "setTicket",
      "outputs": [
        {
          "internalType": "bool",
          "name": "",
          "type": "bool"
        }
      ],
      "stateMutability": "nonpayable",
      "type": "function"
    },
    {
      "inputs": [
        {
          "internalType": "bytes4",
          "name": "interfaceId",
          "type": "bytes4"
        }
      ],
      "name": "supportsInterface",
      "outputs": [
        {
          "internalType": "bool",
          "name": "",
          "type": "bool"
        }
      ],
      "stateMutability": "view",
      "type": "function"
    },
    {
      "inputs": [
        {
          "internalType": "address",
          "name": "newOwner",
          "type": "address"
        }
      ],
      "name": "transferOwnership",
      "outputs": [],
      "stateMutability": "nonpayable",
      "type": "function"
    }
  ],
  "transactionHash": "0x0c2a05a7b778b9ad738cd31bee169c8fc8eed687ddf644c5031bd02127959eba",
  "args": [
    "0x2E5901a29EEBc67F7eBdc6E48921a306389fF21e",
    1,
    "fantom",
    1654905600,
    1123200
  ],
  "numDeployments": 1,
  "solcInputHash": "cebafbd8374a38c09eb04866963b43e9",
  "bytecode": "0x60806040523480156200001157600080fd5b5060405162003457380380620034578339818101604052810190620000379190620004a3565b620000576200004b620000fe60201b60201c565b6200010660201b60201c565b600160028190555083600860006101000a81548163ffffffff021916908363ffffffff1602179055508260059080519060200190620000989291906200033c565b508160078190555080600660006101000a81548163ffffffff021916908363ffffffff160217905550620000f37f241ecf16d79d0f8dbfb92cbc07fe17840425976cf0667f022fe9877caa831b0886620001ca60201b60201c565b50505050506200074a565b600033905090565b60008060009054906101000a900473ffffffffffffffffffffffffffffffffffffffff169050816000806101000a81548173ffffffffffffffffffffffffffffffffffffffff021916908373ffffffffffffffffffffffffffffffffffffffff1602179055508173ffffffffffffffffffffffffffffffffffffffff168173ffffffffffffffffffffffffffffffffffffffff167f8be0079c531659141344cd1fd0a4f28419497f9722a3daafe3b4186f6b6457e060405160405180910390a35050565b620001dc8282620001e060201b60201c565b5050565b620001f28282620002d160201b60201c565b620002cd57600180600084815260200190815260200160002060000160008373ffffffffffffffffffffffffffffffffffffffff1673ffffffffffffffffffffffffffffffffffffffff16815260200190815260200160002060006101000a81548160ff02191690831515021790555062000272620000fe60201b60201c565b73ffffffffffffffffffffffffffffffffffffffff168173ffffffffffffffffffffffffffffffffffffffff16837f2f8788117e7eff1d82e926ec794901d17c78024a50270940304540a733656f0d60405160405180910390a45b5050565b60006001600084815260200190815260200160002060000160008373ffffffffffffffffffffffffffffffffffffffff1673ffffffffffffffffffffffffffffffffffffffff16815260200190815260200160002060009054906101000a900460ff16905092915050565b8280546200034a9062000621565b90600052602060002090601f0160209004810192826200036e5760008555620003ba565b82601f106200038957805160ff1916838001178555620003ba565b82800160010185558215620003ba579182015b82811115620003b95782518255916020019190600101906200039c565b5b509050620003c99190620003cd565b5090565b5b80821115620003e8576000816000905550600101620003ce565b5090565b600062000403620003fd8462000567565b6200053e565b9050828152602081018484840111156200041c57600080fd5b62000429848285620005eb565b509392505050565b6000815190506200044281620006fc565b92915050565b600082601f8301126200045a57600080fd5b81516200046c848260208601620003ec565b91505092915050565b600081519050620004868162000716565b92915050565b6000815190506200049d8162000730565b92915050565b600080600080600060a08688031215620004bc57600080fd5b6000620004cc8882890162000431565b9550506020620004df888289016200048c565b945050604086015167ffffffffffffffff811115620004fd57600080fd5b6200050b8882890162000448565b93505060606200051e8882890162000475565b925050608062000531888289016200048c565b9150509295509295909350565b60006200054a6200055d565b905062000558828262000657565b919050565b6000604051905090565b600067ffffffffffffffff821115620005855762000584620006bc565b5b6200059082620006eb565b9050602081019050919050565b6000620005aa82620005b1565b9050919050565b600073ffffffffffffffffffffffffffffffffffffffff82169050919050565b6000819050919050565b600063ffffffff82169050919050565b60005b838110156200060b578082015181840152602081019050620005ee565b838111156200061b576000848401525b50505050565b600060028204905060018216806200063a57607f821691505b602082108114156200065157620006506200068d565b5b50919050565b6200066282620006eb565b810181811067ffffffffffffffff82111715620006845762000683620006bc565b5b80604052505050565b7f4e487b7100000000000000000000000000000000000000000000000000000000600052602260045260246000fd5b7f4e487b7100000000000000000000000000000000000000000000000000000000600052604160045260246000fd5b6000601f19601f8301169050919050565b62000707816200059d565b81146200071357600080fd5b50565b6200072181620005d1565b81146200072d57600080fd5b50565b6200073b81620005db565b81146200074757600080fd5b50565b612cfd806200075a6000396000f3fe6080604052600436106101815760003560e01c806389c25941116100d1578063d603f4461161008a578063f2fde38b11610064578063f2fde38b1461057b578063f6f7fa30146105a4578063f8d0ca4c146105e1578063ffa1ad741461060c57610181565b8063d603f446146104e8578063e39abd2e14610513578063ec87621c1461055057610181565b806389c25941146103d65780638da5cb5b1461040157806391d148541461042c578063a217fddf14610469578063b69ef8a814610494578063d547741f146104bf57610181565b80634717f97c1161013e57806353b86b671161011857806353b86b671461032c5780635ad3097714610369578063677241b014610394578063715018a6146103bf57610181565b80634717f97c146102ba5780634e71d92d146102e5578063508c5e241461031057610181565b806301ffc9a71461018657806310f1b237146101c3578063248a9ca3146101ee5780632f2ff15d1461022b57806336568abe14610254578063413333de1461027d575b600080fd5b34801561019257600080fd5b506101ad60048036038101906101a89190611f03565b610637565b6040516101ba91906123b1565b60405180910390f35b3480156101cf57600080fd5b506101d86106b1565b6040516101e5919061259f565b60405180910390f35b3480156101fa57600080fd5b5061021560048036038101906102109190611e9e565b6106cb565b60405161022291906123cc565b60405180910390f35b34801561023757600080fd5b50610252600480360381019061024d9190611ec7565b6106eb565b005b34801561026057600080fd5b5061027b60048036038101906102769190611ec7565b61070c565b005b34801561028957600080fd5b506102a4600480360381019061029f9190611e75565b61078f565b6040516102b19190612584565b60405180910390f35b3480156102c657600080fd5b506102cf6107a1565b6040516102dc919061238f565b60405180910390f35b3480156102f157600080fd5b506102fa61081f565b6040516103079190612584565b60405180910390f35b61032a60048036038101906103259190611e75565b610ac8565b005b34801561033857600080fd5b50610353600480360381019061034e9190611f2c565b610c77565b60405161036091906123b1565b60405180910390f35b34801561037557600080fd5b5061037e610f83565b60405161038b9190612584565b60405180910390f35b3480156103a057600080fd5b506103a9610fc2565b6040516103b69190612402565b60405180910390f35b3480156103cb57600080fd5b506103d4611054565b005b3480156103e257600080fd5b506103eb6110dc565b6040516103f89190612584565b60405180910390f35b34801561040d57600080fd5b506104166110eb565b604051610423919061234b565b60405180910390f35b34801561043857600080fd5b50610453600480360381019061044e9190611ec7565b611114565b60405161046091906123b1565b60405180910390f35b34801561047557600080fd5b5061047e61117f565b60405161048b91906123cc565b60405180910390f35b3480156104a057600080fd5b506104a9611186565b6040516104b69190612584565b60405180910390f35b3480156104cb57600080fd5b506104e660048036038101906104e19190611ec7565b611195565b005b3480156104f457600080fd5b506104fd6111b6565b60405161050a91906123b1565b60405180910390f35b34801561051f57600080fd5b5061053a60048036038101906105359190611e75565b6111c5565b60405161054791906123e7565b60405180910390f35b34801561055c57600080fd5b5061056561121f565b60405161057291906123cc565b60405180910390f35b34801561058757600080fd5b506105a2600480360381019061059d9190611e4c565b611243565b005b3480156105b057600080fd5b506105cb60048036038101906105c69190611f91565b61133b565b6040516105d891906123b1565b60405180910390f35b3480156105ed57600080fd5b506105f661144e565b60405161060391906125ba565b60405180910390f35b34801561061857600080fd5b50610621611453565b60405161062e9190612402565b60405180910390f35b60007f7965db0b000000000000000000000000000000000000000000000000000000007bffffffffffffffffffffffffffffffffffffffffffffffffffffffff1916827bffffffffffffffffffffffffffffffffffffffffffffffffffffffff191614806106aa57506106a98261148c565b5b9050919050565b6000600860009054906101000a900463ffffffff16905090565b600060016000838152602001908152602001600020600101549050919050565b6106f4826106cb565b6106fd816114f6565b610707838361150a565b505050565b6107146115ea565b73ffffffffffffffffffffffffffffffffffffffff168173ffffffffffffffffffffffffffffffffffffffff1614610781576040517f08c379a000000000000000000000000000000000000000000000000000000000815260040161077890612564565b60405180910390fd5b61078b82826115f2565b5050565b600061079a826116d4565b9050919050565b6060600980548060200260200160405190810160405280929190818152602001828054801561081557602002820191906000526020600020906000905b82829054906101000a900460ff1660ff16815260200190600101906020826000010492830192600103820291508084116107de5790505b5050505050905090565b60006108296117b0565b610868576040517f08c379a000000000000000000000000000000000000000000000000000000000815260040161085f906124c4565b60405180910390fd5b60006108726117d9565b9050600061087f826116d4565b90506000826108b057600460009054906101000a900473ffffffffffffffffffffffffffffffffffffffff166108d4565b600360009054906101000a900473ffffffffffffffffffffffffffffffffffffffff165b905060008173ffffffffffffffffffffffffffffffffffffffff166370a08231336040518263ffffffff1660e01b8152600401610911919061234b565b60206040518083038186803b15801561092957600080fd5b505afa15801561093d573d6000803e3d6000fd5b505050506040513d601f19601f820116820180604052508101906109619190611f68565b90506000811115610abe576000610976611883565b90508273ffffffffffffffffffffffffffffffffffffffff166390596dd133846040518363ffffffff1660e01b81526004016109b3929190612366565b600060405180830381600087803b1580156109cd57600080fd5b505af11580156109e1573d6000803e3d6000fd5b505050506000610a0c6109fd868561188b90919063ffffffff16565b836118a190919063ffffffff16565b905060003373ffffffffffffffffffffffffffffffffffffffff1682604051610a3490612336565b60006040518083038185875af1925050503d8060008114610a71576040519150601f19603f3d011682016040523d82523d6000602084013e610a76565b606091505b5050905080610aba576040517f08c379a0000000000000000000000000000000000000000000000000000000008152600401610ab190612464565b60405180910390fd5b5050505b8094505050505090565b600280541415610b0d576040517f08c379a0000000000000000000000000000000000000000000000000000000008152600401610b0490612544565b60405180910390fd5b60028081905550610b1c6117b0565b15610b5c576040517f08c379a0000000000000000000000000000000000000000000000000000000008152600401610b53906124a4565b60405180910390fd5b662386f26fc10000341015610ba6576040517f08c379a0000000000000000000000000000000000000000000000000000000008152600401610b9d90612524565b60405180910390fd5b600081610bd557600460009054906101000a900473ffffffffffffffffffffffffffffffffffffffff16610bf9565b600360009054906101000a900473ffffffffffffffffffffffffffffffffffffffff165b9050610c063334836118b7565b8073ffffffffffffffffffffffffffffffffffffffff163373ffffffffffffffffffffffffffffffffffffffff167f8752a472e571a816aea92eec8dae9baf628e840f4929fbcc2d155e6233ff68a734604051610c639190612584565b60405180910390a350600160028190555050565b6000610c816115ea565b73ffffffffffffffffffffffffffffffffffffffff16610c9f6110eb565b73ffffffffffffffffffffffffffffffffffffffff1614610cf5576040517f08c379a0000000000000000000000000000000000000000000000000000000008152600401610cec90612504565b60405180910390fd5b600073ffffffffffffffffffffffffffffffffffffffff168373ffffffffffffffffffffffffffffffffffffffff161415610d65576040517f08c379a0000000000000000000000000000000000000000000000000000000008152600401610d5c90612484565b60405180910390fd5b600073ffffffffffffffffffffffffffffffffffffffff168273ffffffffffffffffffffffffffffffffffffffff161415610dd5576040517f08c379a0000000000000000000000000000000000000000000000000000000008152600401610dcc90612484565b60405180910390fd5b600073ffffffffffffffffffffffffffffffffffffffff16600360009054906101000a900473ffffffffffffffffffffffffffffffffffffffff1673ffffffffffffffffffffffffffffffffffffffff1614610e66576040517f08c379a0000000000000000000000000000000000000000000000000000000008152600401610e5d906124e4565b60405180910390fd5b600073ffffffffffffffffffffffffffffffffffffffff16600460009054906101000a900473ffffffffffffffffffffffffffffffffffffffff1673ffffffffffffffffffffffffffffffffffffffff1614610ef7576040517f08c379a0000000000000000000000000000000000000000000000000000000008152600401610eee906124e4565b60405180910390fd5b82600360006101000a81548173ffffffffffffffffffffffffffffffffffffffff021916908373ffffffffffffffffffffffffffffffffffffffff16021790555081600460006101000a81548173ffffffffffffffffffffffffffffffffffffffff021916908373ffffffffffffffffffffffffffffffffffffffff1602179055506001905092915050565b600080610f8e611929565b90506000610f9a611956565b9050808211610fae57600092505050610fbf565b8082610fba9190612721565b925050505b90565b606060058054610fd190612883565b80601f0160208091040260200160405190810160405280929190818152602001828054610ffd90612883565b801561104a5780601f1061101f5761010080835404028352916020019161104a565b820191906000526020600020905b81548152906001019060200180831161102d57829003601f168201915b5050505050905090565b61105c6115ea565b73ffffffffffffffffffffffffffffffffffffffff1661107a6110eb565b73ffffffffffffffffffffffffffffffffffffffff16146110d0576040517f08c379a00000000000000000000000000000000000000000000000000000000081526004016110c790612504565b60405180910390fd5b6110da600061195e565b565b60006110e6611929565b905090565b60008060009054906101000a900473ffffffffffffffffffffffffffffffffffffffff16905090565b60006001600084815260200190815260200160002060000160008373ffffffffffffffffffffffffffffffffffffffff1673ffffffffffffffffffffffffffffffffffffffff16815260200190815260200160002060009054906101000a900460ff16905092915050565b6000801b81565b6000611190611883565b905090565b61119e826106cb565b6111a7816114f6565b6111b183836115f2565b505050565b60006111c06117b0565b905090565b6000816111f457600460009054906101000a900473ffffffffffffffffffffffffffffffffffffffff16611218565b600360009054906101000a900473ffffffffffffffffffffffffffffffffffffffff165b9050919050565b7f241ecf16d79d0f8dbfb92cbc07fe17840425976cf0667f022fe9877caa831b0881565b61124b6115ea565b73ffffffffffffffffffffffffffffffffffffffff166112696110eb565b73ffffffffffffffffffffffffffffffffffffffff16146112bf576040517f08c379a00000000000000000000000000000000000000000000000000000000081526004016112b690612504565b60405180910390fd5b600073ffffffffffffffffffffffffffffffffffffffff168173ffffffffffffffffffffffffffffffffffffffff16141561132f576040517f08c379a000000000000000000000000000000000000000000000000000000000815260040161132690612444565b60405180910390fd5b6113388161195e565b50565b60007f241ecf16d79d0f8dbfb92cbc07fe17840425976cf0667f022fe9877caa831b08611367816114f6565b61136f6117b0565b156113af576040517f08c379a00000000000000000000000000000000000000000000000000000000081526004016113a6906124a4565b60405180910390fd5b60098390806001815401808255809150506001900390600052602060002090602091828204019190069091909190916101000a81548160ff021916908360ff160217905550600860009054906101000a900463ffffffff1663ffffffff167fda20efca129f9bae17c9366df24b86fefbebdff4a388293be79e22c5cd871f8c8460405161143c91906125ba565b60405180910390a26001915050919050565b600d81565b6040518060400160405280600581526020017f312e302e3000000000000000000000000000000000000000000000000000000081525081565b60007f01ffc9a7000000000000000000000000000000000000000000000000000000007bffffffffffffffffffffffffffffffffffffffffffffffffffffffff1916827bffffffffffffffffffffffffffffffffffffffffffffffffffffffff1916149050919050565b611507816115026115ea565b611a22565b50565b6115148282611114565b6115e657600180600084815260200190815260200160002060000160008373ffffffffffffffffffffffffffffffffffffffff1673ffffffffffffffffffffffffffffffffffffffff16815260200190815260200160002060006101000a81548160ff02191690831515021790555061158b6115ea565b73ffffffffffffffffffffffffffffffffffffffff168173ffffffffffffffffffffffffffffffffffffffff16837f2f8788117e7eff1d82e926ec794901d17c78024a50270940304540a733656f0d60405160405180910390a45b5050565b600033905090565b6115fc8282611114565b156116d05760006001600084815260200190815260200160002060000160008373ffffffffffffffffffffffffffffffffffffffff1673ffffffffffffffffffffffffffffffffffffffff16815260200190815260200160002060006101000a81548160ff0219169083151502179055506116756115ea565b73ffffffffffffffffffffffffffffffffffffffff168173ffffffffffffffffffffffffffffffffffffffff16837ff6391f5c32d9c69d2a47ea670b442974b53935d1edc7fd64eb21e047a839171b60405160405180910390a45b5050565b6000808261170457600460009054906101000a900473ffffffffffffffffffffffffffffffffffffffff16611728565b600360009054906101000a900473ffffffffffffffffffffffffffffffffffffffff165b90508073ffffffffffffffffffffffffffffffffffffffff166318160ddd6040518163ffffffff1660e01b815260040160206040518083038186803b15801561177057600080fd5b505afa158015611784573d6000803e3d6000fd5b505050506040513d601f19601f820116820180604052508101906117a89190611f68565b915050919050565b60006117ba611956565b6117c2611929565b1115806117d45750600d600980549050145b905090565b6000806000905060005b6009805490508110156118775760016009828154811061182c577f4e487b7100000000000000000000000000000000000000000000000000000000600052603260045260246000fd5b90600052602060002090602091828204019190069054906101000a900460ff1660ff161415611864578180611860906128b5565b9250505b808061186f906128b5565b9150506117e3565b50600881101591505090565b600047905090565b600081836118999190612696565b905092915050565b600081836118af91906126c7565b905092915050565b8073ffffffffffffffffffffffffffffffffffffffff16635d7b075884846040518363ffffffff1660e01b81526004016118f2929190612366565b600060405180830381600087803b15801561190c57600080fd5b505af1158015611920573d6000803e3d6000fd5b50505050505050565b6000600660009054906101000a900463ffffffff1663ffffffff166007546119519190612640565b905090565b600042905090565b60008060009054906101000a900473ffffffffffffffffffffffffffffffffffffffff169050816000806101000a81548173ffffffffffffffffffffffffffffffffffffffff021916908373ffffffffffffffffffffffffffffffffffffffff1602179055508173ffffffffffffffffffffffffffffffffffffffff168173ffffffffffffffffffffffffffffffffffffffff167f8be0079c531659141344cd1fd0a4f28419497f9722a3daafe3b4186f6b6457e060405160405180910390a35050565b611a2c8282611114565b611abb57611a518173ffffffffffffffffffffffffffffffffffffffff166014611abf565b611a5f8360001c6020611abf565b604051602001611a709291906122fc565b6040516020818303038152906040526040517f08c379a0000000000000000000000000000000000000000000000000000000008152600401611ab29190612402565b60405180910390fd5b5050565b606060006002836002611ad291906126c7565b611adc9190612640565b67ffffffffffffffff811115611b1b577f4e487b7100000000000000000000000000000000000000000000000000000000600052604160045260246000fd5b6040519080825280601f01601f191660200182016040528015611b4d5781602001600182028036833780820191505090505b5090507f300000000000000000000000000000000000000000000000000000000000000081600081518110611bab577f4e487b7100000000000000000000000000000000000000000000000000000000600052603260045260246000fd5b60200101907effffffffffffffffffffffffffffffffffffffffffffffffffffffffffffff1916908160001a9053507f780000000000000000000000000000000000000000000000000000000000000081600181518110611c35577f4e487b7100000000000000000000000000000000000000000000000000000000600052603260045260246000fd5b60200101907effffffffffffffffffffffffffffffffffffffffffffffffffffffffffffff1916908160001a90535060006001846002611c7591906126c7565b611c7f9190612640565b90505b6001811115611d6b577f3031323334353637383961626364656600000000000000000000000000000000600f861660108110611ce7577f4e487b7100000000000000000000000000000000000000000000000000000000600052603260045260246000fd5b1a60f81b828281518110611d24577f4e487b7100000000000000000000000000000000000000000000000000000000600052603260045260246000fd5b60200101907effffffffffffffffffffffffffffffffffffffffffffffffffffffffffffff1916908160001a905350600485901c945080611d6490612859565b9050611c82565b5060008414611daf576040517f08c379a0000000000000000000000000000000000000000000000000000000008152600401611da690612424565b60405180910390fd5b8091505092915050565b600081359050611dc881612c26565b92915050565b600081359050611ddd81612c3d565b92915050565b600081359050611df281612c54565b92915050565b600081359050611e0781612c6b565b92915050565b600081359050611e1c81612c82565b92915050565b600081519050611e3181612c99565b92915050565b600081359050611e4681612cb0565b92915050565b600060208284031215611e5e57600080fd5b6000611e6c84828501611db9565b91505092915050565b600060208284031215611e8757600080fd5b6000611e9584828501611dce565b91505092915050565b600060208284031215611eb057600080fd5b6000611ebe84828501611de3565b91505092915050565b60008060408385031215611eda57600080fd5b6000611ee885828601611de3565b9250506020611ef985828601611db9565b9150509250929050565b600060208284031215611f1557600080fd5b6000611f2384828501611df8565b91505092915050565b60008060408385031215611f3f57600080fd5b6000611f4d85828601611e0d565b9250506020611f5e85828601611e0d565b9150509250929050565b600060208284031215611f7a57600080fd5b6000611f8884828501611e22565b91505092915050565b600060208284031215611fa357600080fd5b6000611fb184828501611e37565b91505092915050565b6000611fc683836122de565b60208301905092915050565b611fdb81612755565b82525050565b6000611fec826125e5565b611ff68185612608565b9350612001836125d5565b8060005b838110156120325781516120198882611fba565b9750612024836125fb565b925050600181019050612005565b5085935050505092915050565b61204881612767565b82525050565b61205781612773565b82525050565b61206681612802565b82525050565b6000612077826125f0565b6120818185612624565b9350612091818560208601612826565b61209a8161298b565b840191505092915050565b60006120b0826125f0565b6120ba8185612635565b93506120ca818560208601612826565b80840191505092915050565b60006120e3602083612624565b91506120ee8261299c565b602082019050919050565b6000612106602683612624565b9150612111826129c5565b604082019050919050565b6000612129601383612624565b915061213482612a14565b602082019050919050565b600061214c601d83612624565b915061215782612a3d565b602082019050919050565b600061216f601583612624565b915061217a82612a66565b602082019050919050565b6000612192601d83612624565b915061219d82612a8f565b602082019050919050565b60006121b5601383612624565b91506121c082612ab8565b602082019050919050565b60006121d8602083612624565b91506121e382612ae1565b602082019050919050565b60006121fb601783612635565b915061220682612b0a565b601782019050919050565b600061221e601883612624565b915061222982612b33565b602082019050919050565b6000612241601f83612624565b915061224c82612b5c565b602082019050919050565b6000612264600483612619565b915061226f82612b85565b600482019050919050565b6000612287601183612635565b915061229282612bae565b601182019050919050565b60006122aa602f83612624565b91506122b582612bd7565b604082019050919050565b6122c9816127db565b82525050565b6122d8816127e5565b82525050565b6122e7816127f5565b82525050565b6122f6816127f5565b82525050565b6000612307826121ee565b915061231382856120a5565b915061231e8261227a565b915061232a82846120a5565b91508190509392505050565b600061234182612257565b9150819050919050565b60006020820190506123606000830184611fd2565b92915050565b600060408201905061237b6000830185611fd2565b61238860208301846122c0565b9392505050565b600060208201905081810360008301526123a98184611fe1565b905092915050565b60006020820190506123c6600083018461203f565b92915050565b60006020820190506123e1600083018461204e565b92915050565b60006020820190506123fc600083018461205d565b92915050565b6000602082019050818103600083015261241c818461206c565b905092915050565b6000602082019050818103600083015261243d816120d6565b9050919050565b6000602082019050818103600083015261245d816120f9565b9050919050565b6000602082019050818103600083015261247d8161211c565b9050919050565b6000602082019050818103600083015261249d8161213f565b9050919050565b600060208201905081810360008301526124bd81612162565b9050919050565b600060208201905081810360008301526124dd81612185565b9050919050565b600060208201905081810360008301526124fd816121a8565b9050919050565b6000602082019050818103600083015261251d816121cb565b9050919050565b6000602082019050818103600083015261253d81612211565b9050919050565b6000602082019050818103600083015261255d81612234565b9050919050565b6000602082019050818103600083015261257d8161229d565b9050919050565b600060208201905061259960008301846122c0565b92915050565b60006020820190506125b460008301846122cf565b92915050565b60006020820190506125cf60008301846122ed565b92915050565b6000819050602082019050919050565b600081519050919050565b600081519050919050565b6000602082019050919050565b600082825260208201905092915050565b600081905092915050565b600082825260208201905092915050565b600081905092915050565b600061264b826127db565b9150612656836127db565b9250827fffffffffffffffffffffffffffffffffffffffffffffffffffffffffffffffff0382111561268b5761268a6128fe565b5b828201905092915050565b60006126a1826127db565b91506126ac836127db565b9250826126bc576126bb61292d565b5b828204905092915050565b60006126d2826127db565b91506126dd836127db565b9250817fffffffffffffffffffffffffffffffffffffffffffffffffffffffffffffffff0483118215151615612716576127156128fe565b5b828202905092915050565b600061272c826127db565b9150612737836127db565b92508282101561274a576127496128fe565b5b828203905092915050565b6000612760826127bb565b9050919050565b60008115159050919050565b6000819050919050565b60007fffffffff0000000000000000000000000000000000000000000000000000000082169050919050565b60006127b482612755565b9050919050565b600073ffffffffffffffffffffffffffffffffffffffff82169050919050565b6000819050919050565b600063ffffffff82169050919050565b600060ff82169050919050565b600061280d82612814565b9050919050565b600061281f826127bb565b9050919050565b60005b83811015612844578082015181840152602081019050612829565b83811115612853576000848401525b50505050565b6000612864826127db565b91506000821415612878576128776128fe565b5b600182039050919050565b6000600282049050600182168061289b57607f821691505b602082108114156128af576128ae61295c565b5b50919050565b60006128c0826127db565b91507fffffffffffffffffffffffffffffffffffffffffffffffffffffffffffffffff8214156128f3576128f26128fe565b5b600182019050919050565b7f4e487b7100000000000000000000000000000000000000000000000000000000600052601160045260246000fd5b7f4e487b7100000000000000000000000000000000000000000000000000000000600052601260045260246000fd5b7f4e487b7100000000000000000000000000000000000000000000000000000000600052602260045260246000fd5b6000601f19601f8301169050919050565b7f537472696e67733a20686578206c656e67746820696e73756666696369656e74600082015250565b7f4f776e61626c653a206e6577206f776e657220697320746865207a65726f206160008201527f6464726573730000000000000000000000000000000000000000000000000000602082015250565b7f6661696c656420746f20636c61696d2045544800000000000000000000000000600082015250565b7f5469636b65742063616e6e6f74206265207a65726f2061646472657373000000600082015250565b7f5468697320726f756e642068617320656e646564210000000000000000000000600082015250565b7f5468697320726f756e6420686173206e6f7420656e6465642079657421000000600082015250565b7f5469636b657420616c7265616479207365742100000000000000000000000000600082015250565b7f4f776e61626c653a2063616c6c6572206973206e6f7420746865206f776e6572600082015250565b7f416363657373436f6e74726f6c3a206163636f756e7420000000000000000000600082015250565b7f4d696e696d756d206465706f73697420697320302e3031210000000000000000600082015250565b7f5265656e7472616e637947756172643a207265656e7472616e742063616c6c00600082015250565b7f53656e7400000000000000000000000000000000000000000000000000000000600082015250565b7f206973206d697373696e6720726f6c6520000000000000000000000000000000600082015250565b7f416363657373436f6e74726f6c3a2063616e206f6e6c792072656e6f756e636560008201527f20726f6c657320666f722073656c660000000000000000000000000000000000602082015250565b612c2f81612755565b8114612c3a57600080fd5b50565b612c4681612767565b8114612c5157600080fd5b50565b612c5d81612773565b8114612c6857600080fd5b50565b612c748161277d565b8114612c7f57600080fd5b50565b612c8b816127a9565b8114612c9657600080fd5b50565b612ca2816127db565b8114612cad57600080fd5b50565b612cb9816127f5565b8114612cc457600080fd5b5056fea264697066735822122094e0b5874c149421b64cdaf310c89d59e56d3c56b7b6e579385e153a02f2b4f764736f6c63430008040033",
  "devdoc": {
    "author": "The Unit",
    "kind": "dev",
    "methods": {
      "balance()": {
        "returns": {
          "_0": "The underlying balance of assets"
        }
      },
      "constructor": {
        "params": {
          "_beaconPeriodStart": "The time this round starts.",
          "_betCoin": "The coin to bet in this round",
          "_drawId": "The id of this round.",
          "_drawPeriodSeconds": "The duration of this round.",
          "_manager": "Address of the Prize Pool manager, who will set result everyday."
        }
      },
      "depositTo(bool)": {
        "params": {
          "bet": "The choice that user makes"
        }
      },
      "drawPeriodEndAt()": {
        "returns": {
          "_0": "The timestamp at which the beacon period ends."
        }
      },
      "drawRemainingSeconds()": {
        "returns": {
          "_0": "The number of seconds remaining until the prize can be awarded."
        }
      },
      "getAccountedBalance(bool)": {
        "returns": {
          "_0": "uint256 accountBalance"
        }
      },
      "getBetCoin()": {
        "returns": {
          "_0": "The bet coin."
        }
      },
      "getDrawId()": {
        "returns": {
          "_0": "The draw id."
        }
      },
      "getRoleAdmin(bytes32)": {
        "details": "Returns the admin role that controls `role`. See {grantRole} and {revokeRole}. To change a role's admin, use {_setRoleAdmin}."
      },
      "grantRole(bytes32,address)": {
        "details": "Grants `role` to `account`. If `account` had not been already granted `role`, emits a {RoleGranted} event. Requirements: - the caller must have ``role``'s admin role."
      },
      "hasRole(bytes32,address)": {
        "details": "Returns `true` if `account` has been granted `role`."
      },
      "isDrawOver()": {
        "returns": {
          "_0": "True if the beacon period is over, false otherwise"
        }
      },
      "owner()": {
        "details": "Returns the address of the current owner."
      },
      "renounceOwnership()": {
        "details": "Leaves the contract without owner. It will not be possible to call `onlyOwner` functions anymore. Can only be called by the current owner. NOTE: Renouncing ownership will leave the contract without an owner, thereby removing any functionality that is only available to the owner."
      },
      "renounceRole(bytes32,address)": {
        "details": "Revokes `role` from the calling account. Roles are often managed via {grantRole} and {revokeRole}: this function's purpose is to provide a mechanism for accounts to lose their privileges if they are compromised (such as when a trusted device is misplaced). If the calling account had been revoked `role`, emits a {RoleRevoked} event. Requirements: - the caller must be `account`."
      },
      "revokeRole(bytes32,address)": {
        "details": "Revokes `role` from `account`. If `account` had been granted `role`, emits a {RoleRevoked} event. Requirements: - the caller must have ``role``'s admin role."
      },
      "setTicket(address,address)": {
        "params": {
          "noTicket": "Address of the no ticket to set.",
          "yesTicket": "Address of the yes ticket to set."
        },
        "returns": {
          "_0": "True if ticket has been successfully set."
        }
      },
      "supportsInterface(bytes4)": {
        "details": "See {IERC165-supportsInterface}."
      },
      "transferOwnership(address)": {
        "details": "Transfers ownership of the contract to a new account (`newOwner`). Can only be called by the current owner."
      }
    },
    "stateVariables": {
      "drawId": {
        "details": "Starts at 1. This way we know that no Draw has been recorded at 0."
      }
    },
    "title": "The Unit PrizePool",
    "version": 1
  },
  "userdoc": {
    "kind": "user",
    "methods": {
      "VERSION()": {
        "notice": "Semver Version"
      },
      "constructor": {
        "notice": "Deploy the Prize Pool"
      },
      "depositTo(bool)": {
        "notice": "Deposit assets into the Prize Pool in exchange for tokens"
      },
      "drawPeriodEndAt()": {
        "notice": "Returns the timestamp at which the beacon period ends"
      },
      "drawRemainingSeconds()": {
        "notice": "Returns the number of seconds remaining until the prize can be awarded."
      },
      "getAccountedBalance(bool)": {
        "notice": "Read internal Ticket accounted balance."
      },
      "getTicket(bool)": {
        "notice": "Read ticket variable"
      },
      "isDrawOver()": {
        "notice": "Returns whether the beacon period is over"
      },
      "setTicket(address,address)": {
        "notice": "Set prize pool ticket."
      }
    },
    "notice": "People can bet in this prize pool on which coin will get in / fall out from The Unit",
    "version": 1
  },
  "storageLayout": {
    "storage": [
      {
        "astId": 400,
        "contract": "contracts/PrizePool.sol:PrizePool",
        "label": "_owner",
        "offset": 0,
        "slot": "0",
        "type": "t_address"
      },
      {
        "astId": 24,
        "contract": "contracts/PrizePool.sol:PrizePool",
        "label": "_roles",
        "offset": 0,
        "slot": "1",
        "type": "t_mapping(t_bytes32,t_struct(RoleData)19_storage)"
      },
      {
        "astId": 508,
        "contract": "contracts/PrizePool.sol:PrizePool",
        "label": "_status",
        "offset": 0,
        "slot": "2",
        "type": "t_uint256"
      },
      {
        "astId": 3802,
        "contract": "contracts/PrizePool.sol:PrizePool",
        "label": "yesTicket",
        "offset": 0,
        "slot": "3",
        "type": "t_contract(ITicket)4705"
      },
      {
        "astId": 3805,
        "contract": "contracts/PrizePool.sol:PrizePool",
        "label": "noTicket",
        "offset": 0,
        "slot": "4",
        "type": "t_contract(ITicket)4705"
      },
      {
        "astId": 3807,
        "contract": "contracts/PrizePool.sol:PrizePool",
        "label": "betCoin",
        "offset": 0,
        "slot": "5",
        "type": "t_string_storage"
      },
      {
        "astId": 3810,
        "contract": "contracts/PrizePool.sol:PrizePool",
        "label": "drawPeriodSeconds",
        "offset": 0,
        "slot": "6",
        "type": "t_uint32"
      },
      {
        "astId": 3813,
        "contract": "contracts/PrizePool.sol:PrizePool",
        "label": "drawPeriodStartedAt",
        "offset": 0,
        "slot": "7",
        "type": "t_uint256"
      },
      {
        "astId": 3816,
        "contract": "contracts/PrizePool.sol:PrizePool",
        "label": "drawId",
        "offset": 0,
        "slot": "8",
        "type": "t_uint32"
      },
      {
        "astId": 3822,
        "contract": "contracts/PrizePool.sol:PrizePool",
        "label": "results",
        "offset": 0,
        "slot": "9",
        "type": "t_array(t_uint8)dyn_storage"
      }
    ],
    "types": {
      "t_address": {
        "encoding": "inplace",
        "label": "address",
        "numberOfBytes": "20"
      },
      "t_array(t_uint8)dyn_storage": {
        "base": "t_uint8",
        "encoding": "dynamic_array",
        "label": "uint8[]",
        "numberOfBytes": "32"
      },
      "t_bool": {
        "encoding": "inplace",
        "label": "bool",
        "numberOfBytes": "1"
      },
      "t_bytes32": {
        "encoding": "inplace",
        "label": "bytes32",
        "numberOfBytes": "32"
      },
      "t_contract(ITicket)4705": {
        "encoding": "inplace",
        "label": "contract ITicket",
        "numberOfBytes": "20"
      },
      "t_mapping(t_address,t_bool)": {
        "encoding": "mapping",
        "key": "t_address",
        "label": "mapping(address => bool)",
        "numberOfBytes": "32",
        "value": "t_bool"
      },
      "t_mapping(t_bytes32,t_struct(RoleData)19_storage)": {
        "encoding": "mapping",
        "key": "t_bytes32",
        "label": "mapping(bytes32 => struct AccessControl.RoleData)",
        "numberOfBytes": "32",
        "value": "t_struct(RoleData)19_storage"
      },
      "t_string_storage": {
        "encoding": "bytes",
        "label": "string",
        "numberOfBytes": "32"
      },
      "t_struct(RoleData)19_storage": {
        "encoding": "inplace",
        "label": "struct AccessControl.RoleData",
        "members": [
          {
            "astId": 16,
            "contract": "contracts/PrizePool.sol:PrizePool",
            "label": "members",
            "offset": 0,
            "slot": "0",
            "type": "t_mapping(t_address,t_bool)"
          },
          {
            "astId": 18,
            "contract": "contracts/PrizePool.sol:PrizePool",
            "label": "adminRole",
            "offset": 0,
            "slot": "1",
            "type": "t_bytes32"
          }
        ],
        "numberOfBytes": "64"
      },
      "t_uint256": {
        "encoding": "inplace",
        "label": "uint256",
        "numberOfBytes": "32"
      },
      "t_uint32": {
        "encoding": "inplace",
        "label": "uint32",
        "numberOfBytes": "4"
      },
      "t_uint8": {
        "encoding": "inplace",
        "label": "uint8",
        "numberOfBytes": "1"
      }
    }
  }
}