{
  "address": "0xfcDaF500C69277E09C6f02558A6f4B577ccA2873",
  "abi": [
    {
      "inputs": [
        {
          "internalType": "string",
          "name": "_name",
          "type": "string"
        },
        {
          "internalType": "string",
          "name": "_symbol",
          "type": "string"
        },
        {
          "internalType": "uint8",
          "name": "decimals_",
          "type": "uint8"
        },
        {
          "internalType": "address",
          "name": "_controller",
          "type": "address"
        }
      ],
      "stateMutability": "nonpayable",
      "type": "constructor"
    },
    {
      "anonymous": false,
      "inputs": [
        {
          "indexed": true,
          "internalType": "address",
          "name": "owner",
          "type": "address"
        },
        {
          "indexed": true,
          "internalType": "address",
          "name": "spender",
          "type": "address"
        },
        {
          "indexed": false,
          "internalType": "uint256",
          "name": "value",
          "type": "uint256"
        }
      ],
      "name": "Approval",
      "type": "event"
    },
    {
      "anonymous": false,
      "inputs": [
        {
          "indexed": false,
          "internalType": "string",
          "name": "name",
          "type": "string"
        },
        {
          "indexed": false,
          "internalType": "string",
          "name": "symbol",
          "type": "string"
        },
        {
          "indexed": false,
          "internalType": "uint8",
          "name": "decimals",
          "type": "uint8"
        },
        {
          "indexed": true,
          "internalType": "address",
          "name": "controller",
          "type": "address"
        }
      ],
      "name": "Deployed",
      "type": "event"
    },
    {
      "anonymous": false,
      "inputs": [
        {
          "indexed": true,
          "internalType": "address",
          "name": "from",
          "type": "address"
        },
        {
          "indexed": true,
          "internalType": "address",
          "name": "to",
          "type": "address"
        },
        {
          "indexed": false,
          "internalType": "uint256",
          "name": "value",
          "type": "uint256"
        }
      ],
      "name": "Transfer",
      "type": "event"
    },
    {
      "inputs": [],
      "name": "DOMAIN_SEPARATOR",
      "outputs": [
        {
          "internalType": "bytes32",
          "name": "",
          "type": "bytes32"
        }
      ],
      "stateMutability": "view",
      "type": "function"
    },
    {
      "inputs": [
        {
          "internalType": "address",
          "name": "owner",
          "type": "address"
        },
        {
          "internalType": "address",
          "name": "spender",
          "type": "address"
        }
      ],
      "name": "allowance",
      "outputs": [
        {
          "internalType": "uint256",
          "name": "",
          "type": "uint256"
        }
      ],
      "stateMutability": "view",
      "type": "function"
    },
    {
      "inputs": [
        {
          "internalType": "address",
          "name": "spender",
          "type": "address"
        },
        {
          "internalType": "uint256",
          "name": "amount",
          "type": "uint256"
        }
      ],
      "name": "approve",
      "outputs": [
        {
          "internalType": "bool",
          "name": "",
          "type": "bool"
        }
      ],
      "stateMutability": "nonpayable",
      "type": "function"
    },
    {
      "inputs": [
        {
          "internalType": "address",
          "name": "account",
          "type": "address"
        }
      ],
      "name": "balanceOf",
      "outputs": [
        {
          "internalType": "uint256",
          "name": "",
          "type": "uint256"
        }
      ],
      "stateMutability": "view",
      "type": "function"
    },
    {
      "inputs": [],
      "name": "controller",
      "outputs": [
        {
          "internalType": "address",
          "name": "",
          "type": "address"
        }
      ],
      "stateMutability": "view",
      "type": "function"
    },
    {
      "inputs": [
        {
          "internalType": "address",
          "name": "_user",
          "type": "address"
        },
        {
          "internalType": "uint256",
          "name": "_amount",
          "type": "uint256"
        }
      ],
      "name": "controllerBurn",
      "outputs": [],
      "stateMutability": "nonpayable",
      "type": "function"
    },
    {
      "inputs": [
        {
          "internalType": "address",
          "name": "_operator",
          "type": "address"
        },
        {
          "internalType": "address",
          "name": "_user",
          "type": "address"
        },
        {
          "internalType": "uint256",
          "name": "_amount",
          "type": "uint256"
        }
      ],
      "name": "controllerBurnFrom",
      "outputs": [],
      "stateMutability": "nonpayable",
      "type": "function"
    },
    {
      "inputs": [
        {
          "internalType": "address",
          "name": "_user",
          "type": "address"
        },
        {
          "internalType": "uint256",
          "name": "_amount",
          "type": "uint256"
        }
      ],
      "name": "controllerMint",
      "outputs": [],
      "stateMutability": "nonpayable",
      "type": "function"
    },
    {
      "inputs": [],
      "name": "decimals",
      "outputs": [
        {
          "internalType": "uint8",
          "name": "",
          "type": "uint8"
        }
      ],
      "stateMutability": "view",
      "type": "function"
    },
    {
      "inputs": [
        {
          "internalType": "address",
          "name": "spender",
          "type": "address"
        },
        {
          "internalType": "uint256",
          "name": "subtractedValue",
          "type": "uint256"
        }
      ],
      "name": "decreaseAllowance",
      "outputs": [
        {
          "internalType": "bool",
          "name": "",
          "type": "bool"
        }
      ],
      "stateMutability": "nonpayable",
      "type": "function"
    },
    {
      "inputs": [
        {
          "internalType": "address",
          "name": "spender",
          "type": "address"
        },
        {
          "internalType": "uint256",
          "name": "addedValue",
          "type": "uint256"
        }
      ],
      "name": "increaseAllowance",
      "outputs": [
        {
          "internalType": "bool",
          "name": "",
          "type": "bool"
        }
      ],
      "stateMutability": "nonpayable",
      "type": "function"
    },
    {
      "inputs": [],
      "name": "name",
      "outputs": [
        {
          "internalType": "string",
          "name": "",
          "type": "string"
        }
      ],
      "stateMutability": "view",
      "type": "function"
    },
    {
      "inputs": [
        {
          "internalType": "address",
          "name": "owner",
          "type": "address"
        }
      ],
      "name": "nonces",
      "outputs": [
        {
          "internalType": "uint256",
          "name": "",
          "type": "uint256"
        }
      ],
      "stateMutability": "view",
      "type": "function"
    },
    {
      "inputs": [
        {
          "internalType": "address",
          "name": "owner",
          "type": "address"
        },
        {
          "internalType": "address",
          "name": "spender",
          "type": "address"
        },
        {
          "internalType": "uint256",
          "name": "value",
          "type": "uint256"
        },
        {
          "internalType": "uint256",
          "name": "deadline",
          "type": "uint256"
        },
        {
          "internalType": "uint8",
          "name": "v",
          "type": "uint8"
        },
        {
          "internalType": "bytes32",
          "name": "r",
          "type": "bytes32"
        },
        {
          "internalType": "bytes32",
          "name": "s",
          "type": "bytes32"
        }
      ],
      "name": "permit",
      "outputs": [],
      "stateMutability": "nonpayable",
      "type": "function"
    },
    {
      "inputs": [],
      "name": "symbol",
      "outputs": [
        {
          "internalType": "string",
          "name": "",
          "type": "string"
        }
      ],
      "stateMutability": "view",
      "type": "function"
    },
    {
      "inputs": [],
      "name": "totalSupply",
      "outputs": [
        {
          "internalType": "uint256",
          "name": "",
          "type": "uint256"
        }
      ],
      "stateMutability": "view",
      "type": "function"
    },
    {
      "inputs": [
        {
          "internalType": "address",
          "name": "to",
          "type": "address"
        },
        {
          "internalType": "uint256",
          "name": "amount",
          "type": "uint256"
        }
      ],
      "name": "transfer",
      "outputs": [
        {
          "internalType": "bool",
          "name": "",
          "type": "bool"
        }
      ],
      "stateMutability": "nonpayable",
      "type": "function"
    },
    {
      "inputs": [
        {
          "internalType": "address",
          "name": "from",
          "type": "address"
        },
        {
          "internalType": "address",
          "name": "to",
          "type": "address"
        },
        {
          "internalType": "uint256",
          "name": "amount",
          "type": "uint256"
        }
      ],
      "name": "transferFrom",
      "outputs": [
        {
          "internalType": "bool",
          "name": "",
          "type": "bool"
        }
      ],
      "stateMutability": "nonpayable",
      "type": "function"
    }
  ],
  "transactionHash": "0xef77e151d1e7e98f6d18e9bfb8cfc3ef44c14fe748a4ece2d08e7f9376de3436",
  "args": [
    "noUnitV1",
    "nUNIT",
    18,
    "0x319Ad4222c47e6968c9285DE45C4826efb2BBAb9"
  ],
  "numDeployments": 1,
  "solcInputHash": "3eec48c3aef0f1739326207c00df0688",
  "bytecode": "0x6101806040523480156200001257600080fd5b506040516200337a3803806200337a833981810160405281019062000038919062000481565b6040518060400160405280601881526020017f546865556e6974205072697a65506f6f6c205469636b65740000000000000000815250806040518060400160405280600181526020017f310000000000000000000000000000000000000000000000000000000000000081525086868160039080519060200190620000bf92919062000331565b508060049080519060200190620000d892919062000331565b50505060008280519060200120905060008280519060200120905060007f8b73c3c69bb8fe3d512ecc4cf759cc79239f7b179b0ffacaa9a75d522b39400f90508260e081815250508161010081815250504660a0818152505062000144818484620002f560201b60201c565b608081815250503073ffffffffffffffffffffffffffffffffffffffff1660c08173ffffffffffffffffffffffffffffffffffffffff1660601b81525050806101208181525050505050505050600073ffffffffffffffffffffffffffffffffffffffff168173ffffffffffffffffffffffffffffffffffffffff16141562000204576040517f08c379a0000000000000000000000000000000000000000000000000000000008152600401620001fb906200069a565b60405180910390fd5b8073ffffffffffffffffffffffffffffffffffffffff166101408173ffffffffffffffffffffffffffffffffffffffff1660601b8152505060008260ff161162000285576040517f08c379a00000000000000000000000000000000000000000000000000000000081526004016200027c90620006bc565b60405180910390fd5b8160ff166101608160ff1660f81b815250508073ffffffffffffffffffffffffffffffffffffffff167fde72fc29218361f33503847e6f32be813f9ec92fc7c772bb59e46675c890fd0e858585604051620002e3939291906200064f565b60405180910390a2505050506200096b565b6000838383463060405160200162000312959493929190620005f2565b6040516020818303038152906040528051906020012090509392505050565b8280546200033f90620007e4565b90600052602060002090601f016020900481019282620003635760008555620003af565b82601f106200037e57805160ff1916838001178555620003af565b82800160010185558215620003af579182015b82811115620003ae57825182559160200191906001019062000391565b5b509050620003be9190620003c2565b5090565b5b80821115620003dd576000816000905550600101620003c3565b5090565b6000620003f8620003f28462000707565b620006de565b9050828152602081018484840111156200041157600080fd5b6200041e848285620007ae565b509392505050565b600081519050620004378162000937565b92915050565b600082601f8301126200044f57600080fd5b815162000461848260208601620003e1565b91505092915050565b6000815190506200047b8162000951565b92915050565b600080600080608085870312156200049857600080fd5b600085015167ffffffffffffffff811115620004b357600080fd5b620004c1878288016200043d565b945050602085015167ffffffffffffffff811115620004df57600080fd5b620004ed878288016200043d565b935050604062000500878288016200046a565b9250506060620005138782880162000426565b91505092959194509250565b6200052a8162000759565b82525050565b6200053b816200076d565b82525050565b60006200054e826200073d565b6200055a818562000748565b93506200056c818560208601620007ae565b6200057781620008ae565b840191505092915050565b60006200059160228362000748565b91506200059e82620008bf565b604082019050919050565b6000620005b860178362000748565b9150620005c5826200090e565b602082019050919050565b620005db8162000797565b82525050565b620005ec81620007a1565b82525050565b600060a08201905062000609600083018862000530565b62000618602083018762000530565b62000627604083018662000530565b620006366060830185620005d0565b6200064560808301846200051f565b9695505050505050565b600060608201905081810360008301526200066b818662000541565b9050818103602083015262000681818562000541565b9050620006926040830184620005e1565b949350505050565b60006020820190508181036000830152620006b58162000582565b9050919050565b60006020820190508181036000830152620006d781620005a9565b9050919050565b6000620006ea620006fd565b9050620006f882826200081a565b919050565b6000604051905090565b600067ffffffffffffffff8211156200072557620007246200087f565b5b6200073082620008ae565b9050602081019050919050565b600081519050919050565b600082825260208201905092915050565b6000620007668262000777565b9050919050565b6000819050919050565b600073ffffffffffffffffffffffffffffffffffffffff82169050919050565b6000819050919050565b600060ff82169050919050565b60005b83811015620007ce578082015181840152602081019050620007b1565b83811115620007de576000848401525b50505050565b60006002820490506001821680620007fd57607f821691505b6020821081141562000814576200081362000850565b5b50919050565b6200082582620008ae565b810181811067ffffffffffffffff821117156200084757620008466200087f565b5b80604052505050565b7f4e487b7100000000000000000000000000000000000000000000000000000000600052602260045260246000fd5b7f4e487b7100000000000000000000000000000000000000000000000000000000600052604160045260246000fd5b6000601f19601f8301169050919050565b7f5469636b65742f636f6e74726f6c6c65722d6e6f742d7a65726f2d616464726560008201527f7373000000000000000000000000000000000000000000000000000000000000602082015250565b7f5469636b65742f646563696d616c732d67742d7a65726f000000000000000000600082015250565b620009428162000759565b81146200094e57600080fd5b50565b6200095c81620007a1565b81146200096857600080fd5b50565b60805160a05160c05160601c60e05161010051610120516101405160601c6101605160f81c61298b620009ef60003960006104b101526000818161051d015281816105b9015281816107410152610ad201526000611082015260006110c4015260006110a301526000610fd80152600061102e01526000611057015261298b6000f3fe608060405234801561001057600080fd5b50600436106101165760003560e01c806370a08231116100a2578063a457c2d711610071578063a457c2d7146102f5578063a9059cbb14610325578063d505accf14610355578063dd62ed3e14610371578063f77c4791146103a157610116565b806370a082311461025b5780637ecebe001461028b57806390596dd1146102bb57806395d89b41146102d757610116565b8063313ce567116100e9578063313ce567146101b75780633644e515146101d557806339509351146101f35780635d7b075814610223578063631b5dfb1461023f57610116565b806306fdde031461011b578063095ea7b31461013957806318160ddd1461016957806323b872dd14610187575b600080fd5b6101236103bf565b6040516101309190612035565b60405180910390f35b610153600480360381019061014e9190611b67565b610451565b6040516101609190611f06565b60405180910390f35b610171610474565b60405161017e9190612277565b60405180910390f35b6101a1600480360381019061019c9190611a7a565b61047e565b6040516101ae9190611f06565b60405180910390f35b6101bf6104ad565b6040516101cc9190612292565b60405180910390f35b6101dd6104d5565b6040516101ea9190611f21565b60405180910390f35b61020d60048036038101906102089190611b67565b6104e4565b60405161021a9190611f06565b60405180910390f35b61023d60048036038101906102389190611b67565b61051b565b005b61025960048036038101906102549190611a7a565b6105b7565b005b61027560048036038101906102709190611a15565b6106a7565b6040516102829190612277565b60405180910390f35b6102a560048036038101906102a09190611a15565b6106ef565b6040516102b29190612277565b60405180910390f35b6102d560048036038101906102d09190611b67565b61073f565b005b6102df6107db565b6040516102ec9190612035565b60405180910390f35b61030f600480360381019061030a9190611b67565b61086d565b60405161031c9190611f06565b60405180910390f35b61033f600480360381019061033a9190611b67565b6108e4565b60405161034c9190611f06565b60405180910390f35b61036f600480360381019061036a9190611ac9565b610907565b005b61038b60048036038101906103869190611a3e565b610a49565b6040516103989190612277565b60405180910390f35b6103a9610ad0565b6040516103b69190611eeb565b60405180910390f35b6060600380546103ce906123f0565b80601f01602080910402602001604051908101604052809291908181526020018280546103fa906123f0565b80156104475780601f1061041c57610100808354040283529160200191610447565b820191906000526020600020905b81548152906001019060200180831161042a57829003601f168201915b5050505050905090565b60008061045c610af4565b9050610469818585610afc565b600191505092915050565b6000600254905090565b600080610489610af4565b9050610496858285610cc7565b6104a1858585610d53565b60019150509392505050565b60007f0000000000000000000000000000000000000000000000000000000000000000905090565b60006104df610fd4565b905090565b6000806104ef610af4565b90506105108185856105018589610a49565b61050b91906122d4565b610afc565b600191505092915050565b7f000000000000000000000000000000000000000000000000000000000000000073ffffffffffffffffffffffffffffffffffffffff163373ffffffffffffffffffffffffffffffffffffffff16146105a9576040517f08c379a00000000000000000000000000000000000000000000000000000000081526004016105a090612177565b60405180910390fd5b6105b382826110ee565b5050565b7f000000000000000000000000000000000000000000000000000000000000000073ffffffffffffffffffffffffffffffffffffffff163373ffffffffffffffffffffffffffffffffffffffff1614610645576040517f08c379a000000000000000000000000000000000000000000000000000000000815260040161063c90612177565b60405180910390fd5b8173ffffffffffffffffffffffffffffffffffffffff168373ffffffffffffffffffffffffffffffffffffffff1614610698576106978284836106888688610a49565b610692919061232a565b610afc565b5b6106a2828261124e565b505050565b60008060008373ffffffffffffffffffffffffffffffffffffffff1673ffffffffffffffffffffffffffffffffffffffff168152602001908152602001600020549050919050565b6000610738600560008473ffffffffffffffffffffffffffffffffffffffff1673ffffffffffffffffffffffffffffffffffffffff168152602001908152602001600020611425565b9050919050565b7f000000000000000000000000000000000000000000000000000000000000000073ffffffffffffffffffffffffffffffffffffffff163373ffffffffffffffffffffffffffffffffffffffff16146107cd576040517f08c379a00000000000000000000000000000000000000000000000000000000081526004016107c490612177565b60405180910390fd5b6107d7828261124e565b5050565b6060600480546107ea906123f0565b80601f0160208091040260200160405190810160405280929190818152602001828054610816906123f0565b80156108635780601f1061083857610100808354040283529160200191610863565b820191906000526020600020905b81548152906001019060200180831161084657829003601f168201915b5050505050905090565b600080610878610af4565b905060006108868286610a49565b9050838110156108cb576040517f08c379a00000000000000000000000000000000000000000000000000000000081526004016108c290612237565b60405180910390fd5b6108d88286868403610afc565b60019250505092915050565b6000806108ef610af4565b90506108fc818585610d53565b600191505092915050565b8342111561094a576040517f08c379a000000000000000000000000000000000000000000000000000000000815260040161094190612117565b60405180910390fd5b60007f6e71edae12b1b97f4d1f60370fef10105fa2faae0126114a169c64845d6126c98888886109798c611433565b8960405160200161098f96959493929190611f3c565b60405160208183030381529060405280519060200120905060006109b282611491565b905060006109c2828787876114ab565b90508973ffffffffffffffffffffffffffffffffffffffff168173ffffffffffffffffffffffffffffffffffffffff1614610a32576040517f08c379a0000000000000000000000000000000000000000000000000000000008152600401610a29906121b7565b60405180910390fd5b610a3d8a8a8a610afc565b50505050505050505050565b6000600160008473ffffffffffffffffffffffffffffffffffffffff1673ffffffffffffffffffffffffffffffffffffffff16815260200190815260200160002060008373ffffffffffffffffffffffffffffffffffffffff1673ffffffffffffffffffffffffffffffffffffffff16815260200190815260200160002054905092915050565b7f000000000000000000000000000000000000000000000000000000000000000081565b600033905090565b600073ffffffffffffffffffffffffffffffffffffffff168373ffffffffffffffffffffffffffffffffffffffff161415610b6c576040517f08c379a0000000000000000000000000000000000000000000000000000000008152600401610b6390612217565b60405180910390fd5b600073ffffffffffffffffffffffffffffffffffffffff168273ffffffffffffffffffffffffffffffffffffffff161415610bdc576040517f08c379a0000000000000000000000000000000000000000000000000000000008152600401610bd3906120d7565b60405180910390fd5b80600160008573ffffffffffffffffffffffffffffffffffffffff1673ffffffffffffffffffffffffffffffffffffffff16815260200190815260200160002060008473ffffffffffffffffffffffffffffffffffffffff1673ffffffffffffffffffffffffffffffffffffffff168152602001908152602001600020819055508173ffffffffffffffffffffffffffffffffffffffff168373ffffffffffffffffffffffffffffffffffffffff167f8c5be1e5ebec7d5bd14f71427d1e84f3dd0314c0f7b2291e5b200ac8c7c3b92583604051610cba9190612277565b60405180910390a3505050565b6000610cd38484610a49565b90507fffffffffffffffffffffffffffffffffffffffffffffffffffffffffffffffff8114610d4d5781811015610d3f576040517f08c379a0000000000000000000000000000000000000000000000000000000008152600401610d36906120f7565b60405180910390fd5b610d4c8484848403610afc565b5b50505050565b600073ffffffffffffffffffffffffffffffffffffffff168373ffffffffffffffffffffffffffffffffffffffff161415610dc3576040517f08c379a0000000000000000000000000000000000000000000000000000000008152600401610dba906121f7565b60405180910390fd5b600073ffffffffffffffffffffffffffffffffffffffff168273ffffffffffffffffffffffffffffffffffffffff161415610e33576040517f08c379a0000000000000000000000000000000000000000000000000000000008152600401610e2a90612077565b60405180910390fd5b610e3e8383836114d6565b60008060008573ffffffffffffffffffffffffffffffffffffffff1673ffffffffffffffffffffffffffffffffffffffff16815260200190815260200160002054905081811015610ec4576040517f08c379a0000000000000000000000000000000000000000000000000000000008152600401610ebb90612137565b60405180910390fd5b8181036000808673ffffffffffffffffffffffffffffffffffffffff1673ffffffffffffffffffffffffffffffffffffffff16815260200190815260200160002081905550816000808573ffffffffffffffffffffffffffffffffffffffff1673ffffffffffffffffffffffffffffffffffffffff1681526020019081526020016000206000828254610f5791906122d4565b925050819055508273ffffffffffffffffffffffffffffffffffffffff168473ffffffffffffffffffffffffffffffffffffffff167fddf252ad1be2c89b69c2b068fc378daa952ba7f163c4a11628f55a4df523b3ef84604051610fbb9190612277565b60405180910390a3610fce8484846114db565b50505050565b60007f000000000000000000000000000000000000000000000000000000000000000073ffffffffffffffffffffffffffffffffffffffff163073ffffffffffffffffffffffffffffffffffffffff1614801561105057507f000000000000000000000000000000000000000000000000000000000000000046145b1561107d577f000000000000000000000000000000000000000000000000000000000000000090506110eb565b6110e87f00000000000000000000000000000000000000000000000000000000000000007f00000000000000000000000000000000000000000000000000000000000000007f00000000000000000000000000000000000000000000000000000000000000006114e0565b90505b90565b600073ffffffffffffffffffffffffffffffffffffffff168273ffffffffffffffffffffffffffffffffffffffff16141561115e576040517f08c379a000000000000000000000000000000000000000000000000000000000815260040161115590612257565b60405180910390fd5b61116a600083836114d6565b806002600082825461117c91906122d4565b92505081905550806000808473ffffffffffffffffffffffffffffffffffffffff1673ffffffffffffffffffffffffffffffffffffffff16815260200190815260200160002060008282546111d191906122d4565b925050819055508173ffffffffffffffffffffffffffffffffffffffff16600073ffffffffffffffffffffffffffffffffffffffff167fddf252ad1be2c89b69c2b068fc378daa952ba7f163c4a11628f55a4df523b3ef836040516112369190612277565b60405180910390a361124a600083836114db565b5050565b600073ffffffffffffffffffffffffffffffffffffffff168273ffffffffffffffffffffffffffffffffffffffff1614156112be576040517f08c379a00000000000000000000000000000000000000000000000000000000081526004016112b5906121d7565b60405180910390fd5b6112ca826000836114d6565b60008060008473ffffffffffffffffffffffffffffffffffffffff1673ffffffffffffffffffffffffffffffffffffffff16815260200190815260200160002054905081811015611350576040517f08c379a000000000000000000000000000000000000000000000000000000000815260040161134790612097565b60405180910390fd5b8181036000808573ffffffffffffffffffffffffffffffffffffffff1673ffffffffffffffffffffffffffffffffffffffff1681526020019081526020016000208190555081600260008282546113a7919061232a565b92505081905550600073ffffffffffffffffffffffffffffffffffffffff168373ffffffffffffffffffffffffffffffffffffffff167fddf252ad1be2c89b69c2b068fc378daa952ba7f163c4a11628f55a4df523b3ef8460405161140c9190612277565b60405180910390a3611420836000846114db565b505050565b600081600001549050919050565b600080600560008473ffffffffffffffffffffffffffffffffffffffff1673ffffffffffffffffffffffffffffffffffffffff168152602001908152602001600020905061148081611425565b915061148b8161151a565b50919050565b60006114a461149e610fd4565b83611530565b9050919050565b60008060006114bc87878787611563565b915091506114c981611670565b8192505050949350505050565b505050565b505050565b600083838346306040516020016114fb959493929190611f9d565b6040516020818303038152906040528051906020012090509392505050565b6001816000016000828254019250508190555050565b60008282604051602001611545929190611eb4565b60405160208183030381529060405280519060200120905092915050565b6000807f7fffffffffffffffffffffffffffffff5d576e7357a4501ddfe92f46681b20a08360001c111561159e576000600391509150611667565b601b8560ff16141580156115b65750601c8560ff1614155b156115c8576000600491509150611667565b6000600187878787604051600081526020016040526040516115ed9493929190611ff0565b6020604051602081039080840390855afa15801561160f573d6000803e3d6000fd5b505050602060405103519050600073ffffffffffffffffffffffffffffffffffffffff168173ffffffffffffffffffffffffffffffffffffffff16141561165e57600060019250925050611667565b80600092509250505b94509492505050565b600060048111156116aa577f4e487b7100000000000000000000000000000000000000000000000000000000600052602160045260246000fd5b8160048111156116e3577f4e487b7100000000000000000000000000000000000000000000000000000000600052602160045260246000fd5b14156116ee576119be565b60016004811115611728577f4e487b7100000000000000000000000000000000000000000000000000000000600052602160045260246000fd5b816004811115611761577f4e487b7100000000000000000000000000000000000000000000000000000000600052602160045260246000fd5b14156117a2576040517f08c379a000000000000000000000000000000000000000000000000000000000815260040161179990612057565b60405180910390fd5b600260048111156117dc577f4e487b7100000000000000000000000000000000000000000000000000000000600052602160045260246000fd5b816004811115611815577f4e487b7100000000000000000000000000000000000000000000000000000000600052602160045260246000fd5b1415611856576040517f08c379a000000000000000000000000000000000000000000000000000000000815260040161184d906120b7565b60405180910390fd5b60036004811115611890577f4e487b7100000000000000000000000000000000000000000000000000000000600052602160045260246000fd5b8160048111156118c9577f4e487b7100000000000000000000000000000000000000000000000000000000600052602160045260246000fd5b141561190a576040517f08c379a000000000000000000000000000000000000000000000000000000000815260040161190190612157565b60405180910390fd5b600480811115611943577f4e487b7100000000000000000000000000000000000000000000000000000000600052602160045260246000fd5b81600481111561197c577f4e487b7100000000000000000000000000000000000000000000000000000000600052602160045260246000fd5b14156119bd576040517f08c379a00000000000000000000000000000000000000000000000000000000081526004016119b490612197565b60405180910390fd5b5b50565b6000813590506119d0816128f9565b92915050565b6000813590506119e581612910565b92915050565b6000813590506119fa81612927565b92915050565b600081359050611a0f8161293e565b92915050565b600060208284031215611a2757600080fd5b6000611a35848285016119c1565b91505092915050565b60008060408385031215611a5157600080fd5b6000611a5f858286016119c1565b9250506020611a70858286016119c1565b9150509250929050565b600080600060608486031215611a8f57600080fd5b6000611a9d868287016119c1565b9350506020611aae868287016119c1565b9250506040611abf868287016119eb565b9150509250925092565b600080600080600080600060e0888a031215611ae457600080fd5b6000611af28a828b016119c1565b9750506020611b038a828b016119c1565b9650506040611b148a828b016119eb565b9550506060611b258a828b016119eb565b9450506080611b368a828b01611a00565b93505060a0611b478a828b016119d6565b92505060c0611b588a828b016119d6565b91505092959891949750929550565b60008060408385031215611b7a57600080fd5b6000611b88858286016119c1565b9250506020611b99858286016119eb565b9150509250929050565b611bac8161235e565b82525050565b611bbb81612370565b82525050565b611bca8161237c565b82525050565b611be1611bdc8261237c565b612422565b82525050565b6000611bf2826122ad565b611bfc81856122b8565b9350611c0c8185602086016123bd565b611c158161248a565b840191505092915050565b6000611c2d6018836122b8565b9150611c388261249b565b602082019050919050565b6000611c506023836122b8565b9150611c5b826124c4565b604082019050919050565b6000611c736022836122b8565b9150611c7e82612513565b604082019050919050565b6000611c96601f836122b8565b9150611ca182612562565b602082019050919050565b6000611cb96022836122b8565b9150611cc48261258b565b604082019050919050565b6000611cdc6002836122c9565b9150611ce7826125da565b600282019050919050565b6000611cff601d836122b8565b9150611d0a82612603565b602082019050919050565b6000611d22601d836122b8565b9150611d2d8261262c565b602082019050919050565b6000611d456026836122b8565b9150611d5082612655565b604082019050919050565b6000611d686022836122b8565b9150611d73826126a4565b604082019050919050565b6000611d8b6016836122b8565b9150611d96826126f3565b602082019050919050565b6000611dae6022836122b8565b9150611db98261271c565b604082019050919050565b6000611dd1601e836122b8565b9150611ddc8261276b565b602082019050919050565b6000611df46021836122b8565b9150611dff82612794565b604082019050919050565b6000611e176025836122b8565b9150611e22826127e3565b604082019050919050565b6000611e3a6024836122b8565b9150611e4582612832565b604082019050919050565b6000611e5d6025836122b8565b9150611e6882612881565b604082019050919050565b6000611e80601f836122b8565b9150611e8b826128d0565b602082019050919050565b611e9f816123a6565b82525050565b611eae816123b0565b82525050565b6000611ebf82611ccf565b9150611ecb8285611bd0565b602082019150611edb8284611bd0565b6020820191508190509392505050565b6000602082019050611f006000830184611ba3565b92915050565b6000602082019050611f1b6000830184611bb2565b92915050565b6000602082019050611f366000830184611bc1565b92915050565b600060c082019050611f516000830189611bc1565b611f5e6020830188611ba3565b611f6b6040830187611ba3565b611f786060830186611e96565b611f856080830185611e96565b611f9260a0830184611e96565b979650505050505050565b600060a082019050611fb26000830188611bc1565b611fbf6020830187611bc1565b611fcc6040830186611bc1565b611fd96060830185611e96565b611fe66080830184611ba3565b9695505050505050565b60006080820190506120056000830187611bc1565b6120126020830186611ea5565b61201f6040830185611bc1565b61202c6060830184611bc1565b95945050505050565b6000602082019050818103600083015261204f8184611be7565b905092915050565b6000602082019050818103600083015261207081611c20565b9050919050565b6000602082019050818103600083015261209081611c43565b9050919050565b600060208201905081810360008301526120b081611c66565b9050919050565b600060208201905081810360008301526120d081611c89565b9050919050565b600060208201905081810360008301526120f081611cac565b9050919050565b6000602082019050818103600083015261211081611cf2565b9050919050565b6000602082019050818103600083015261213081611d15565b9050919050565b6000602082019050818103600083015261215081611d38565b9050919050565b6000602082019050818103600083015261217081611d5b565b9050919050565b6000602082019050818103600083015261219081611d7e565b9050919050565b600060208201905081810360008301526121b081611da1565b9050919050565b600060208201905081810360008301526121d081611dc4565b9050919050565b600060208201905081810360008301526121f081611de7565b9050919050565b6000602082019050818103600083015261221081611e0a565b9050919050565b6000602082019050818103600083015261223081611e2d565b9050919050565b6000602082019050818103600083015261225081611e50565b9050919050565b6000602082019050818103600083015261227081611e73565b9050919050565b600060208201905061228c6000830184611e96565b92915050565b60006020820190506122a76000830184611ea5565b92915050565b600081519050919050565b600082825260208201905092915050565b600081905092915050565b60006122df826123a6565b91506122ea836123a6565b9250827fffffffffffffffffffffffffffffffffffffffffffffffffffffffffffffffff0382111561231f5761231e61242c565b5b828201905092915050565b6000612335826123a6565b9150612340836123a6565b9250828210156123535761235261242c565b5b828203905092915050565b600061236982612386565b9050919050565b60008115159050919050565b6000819050919050565b600073ffffffffffffffffffffffffffffffffffffffff82169050919050565b6000819050919050565b600060ff82169050919050565b60005b838110156123db5780820151818401526020810190506123c0565b838111156123ea576000848401525b50505050565b6000600282049050600182168061240857607f821691505b6020821081141561241c5761241b61245b565b5b50919050565b6000819050919050565b7f4e487b7100000000000000000000000000000000000000000000000000000000600052601160045260246000fd5b7f4e487b7100000000000000000000000000000000000000000000000000000000600052602260045260246000fd5b6000601f19601f8301169050919050565b7f45434453413a20696e76616c6964207369676e61747572650000000000000000600082015250565b7f45524332303a207472616e7366657220746f20746865207a65726f206164647260008201527f6573730000000000000000000000000000000000000000000000000000000000602082015250565b7f45524332303a206275726e20616d6f756e7420657863656564732062616c616e60008201527f6365000000000000000000000000000000000000000000000000000000000000602082015250565b7f45434453413a20696e76616c6964207369676e6174757265206c656e67746800600082015250565b7f45524332303a20617070726f766520746f20746865207a65726f20616464726560008201527f7373000000000000000000000000000000000000000000000000000000000000602082015250565b7f1901000000000000000000000000000000000000000000000000000000000000600082015250565b7f45524332303a20696e73756666696369656e7420616c6c6f77616e6365000000600082015250565b7f45524332305065726d69743a206578706972656420646561646c696e65000000600082015250565b7f45524332303a207472616e7366657220616d6f756e742065786365656473206260008201527f616c616e63650000000000000000000000000000000000000000000000000000602082015250565b7f45434453413a20696e76616c6964207369676e6174757265202773272076616c60008201527f7565000000000000000000000000000000000000000000000000000000000000602082015250565b7f5469636b65742f6f6e6c792d636f6e74726f6c6c657200000000000000000000600082015250565b7f45434453413a20696e76616c6964207369676e6174757265202776272076616c60008201527f7565000000000000000000000000000000000000000000000000000000000000602082015250565b7f45524332305065726d69743a20696e76616c6964207369676e61747572650000600082015250565b7f45524332303a206275726e2066726f6d20746865207a65726f2061646472657360008201527f7300000000000000000000000000000000000000000000000000000000000000602082015250565b7f45524332303a207472616e736665722066726f6d20746865207a65726f20616460008201527f6472657373000000000000000000000000000000000000000000000000000000602082015250565b7f45524332303a20617070726f76652066726f6d20746865207a65726f2061646460008201527f7265737300000000000000000000000000000000000000000000000000000000602082015250565b7f45524332303a2064656372656173656420616c6c6f77616e63652062656c6f7760008201527f207a65726f000000000000000000000000000000000000000000000000000000602082015250565b7f45524332303a206d696e7420746f20746865207a65726f206164647265737300600082015250565b6129028161235e565b811461290d57600080fd5b50565b6129198161237c565b811461292457600080fd5b50565b612930816123a6565b811461293b57600080fd5b50565b612947816123b0565b811461295257600080fd5b5056fea2646970667358221220592dce24f5e1bac7ffa239c84f8932f8fe0e02241a1dad82055e0fc23f55d31b64736f6c63430008040033",
  "devdoc": {
    "author": "The Unit",
    "events": {
      "Deployed(string,string,uint8,address)": {
        "details": "Emitted when contract is deployed"
      }
    },
    "kind": "dev",
    "methods": {
      "DOMAIN_SEPARATOR()": {
        "details": "See {IERC20Permit-DOMAIN_SEPARATOR}."
      },
      "allowance(address,address)": {
        "details": "See {IERC20-allowance}."
      },
      "approve(address,uint256)": {
        "details": "See {IERC20-approve}. NOTE: If `amount` is the maximum `uint256`, the allowance is not updated on `transferFrom`. This is semantically equivalent to an infinite approval. Requirements: - `spender` cannot be the zero address."
      },
      "balanceOf(address)": {
        "details": "See {IERC20-balanceOf}."
      },
      "constructor": {
        "params": {
          "_controller": "Address of the Controller contract for minting & burning",
          "_name": "The name of the Token",
          "_symbol": "The symbol for the Token",
          "decimals_": "The number of decimals for the Token"
        }
      },
      "controllerBurn(address,uint256)": {
        "details": "May be overridden to provide more granular control over burning",
        "params": {
          "_amount": "Amount of tokens to burn",
          "_user": "Address of the holder account to burn tokens from"
        }
      },
      "controllerBurnFrom(address,address,uint256)": {
        "details": "May be overridden to provide more granular control over operator-burning",
        "params": {
          "_amount": "Amount of tokens to burn",
          "_operator": "Address of the operator performing the burn action via the controller contract",
          "_user": "Address of the holder account to burn tokens from"
        }
      },
      "controllerMint(address,uint256)": {
        "details": "May be overridden to provide more granular control over minting",
        "params": {
          "_amount": "Amount of tokens to mint",
          "_user": "Address of the receiver of the minted tokens"
        }
      },
      "decimals()": {
        "details": "This value should be equal to the decimals of the token used to deposit into the pool.",
        "returns": {
          "_0": "uint8 decimals."
        }
      },
      "decreaseAllowance(address,uint256)": {
        "details": "Atomically decreases the allowance granted to `spender` by the caller. This is an alternative to {approve} that can be used as a mitigation for problems described in {IERC20-approve}. Emits an {Approval} event indicating the updated allowance. Requirements: - `spender` cannot be the zero address. - `spender` must have allowance for the caller of at least `subtractedValue`."
      },
      "increaseAllowance(address,uint256)": {
        "details": "Atomically increases the allowance granted to `spender` by the caller. This is an alternative to {approve} that can be used as a mitigation for problems described in {IERC20-approve}. Emits an {Approval} event indicating the updated allowance. Requirements: - `spender` cannot be the zero address."
      },
      "name()": {
        "details": "Returns the name of the token."
      },
      "nonces(address)": {
        "details": "See {IERC20Permit-nonces}."
      },
      "permit(address,address,uint256,uint256,uint8,bytes32,bytes32)": {
        "details": "See {IERC20Permit-permit}."
      },
      "symbol()": {
        "details": "Returns the symbol of the token, usually a shorter version of the name."
      },
      "totalSupply()": {
        "details": "See {IERC20-totalSupply}."
      },
      "transfer(address,uint256)": {
        "details": "See {IERC20-transfer}. Requirements: - `to` cannot be the zero address. - the caller must have a balance of at least `amount`."
      },
      "transferFrom(address,address,uint256)": {
        "details": "See {IERC20-transferFrom}. Emits an {Approval} event indicating the updated allowance. This is not required by the EIP. See the note at the beginning of {ERC20}. NOTE: Does not update the allowance if the current allowance is the maximum `uint256`. Requirements: - `from` and `to` cannot be the zero address. - `from` must have a balance of at least `amount`. - the caller must have allowance for ``from``'s tokens of at least `amount`."
      }
    },
    "title": "The Unit Controlled ERC20 Token",
    "version": 1
  },
  "userdoc": {
    "kind": "user",
    "methods": {
      "constructor": {
        "notice": "Deploy the Controlled Token with Token Details and the Controller"
      },
      "controller()": {
        "notice": "Interface to the contract responsible for controlling mint/burn"
      },
      "controllerBurn(address,uint256)": {
        "notice": "Allows the controller to burn tokens from a user account"
      },
      "controllerBurnFrom(address,address,uint256)": {
        "notice": "Allows an operator via the controller to burn tokens on behalf of a user account"
      },
      "controllerMint(address,uint256)": {
        "notice": "Allows the controller to mint tokens for a user account"
      },
      "decimals()": {
        "notice": "Returns the ERC20 controlled token decimals."
      }
    },
    "notice": "ERC20 Tokens with a controller for minting & burning",
    "version": 1
  },
  "storageLayout": {
    "storage": [
      {
        "astId": 553,
        "contract": "contracts/Ticket.sol:Ticket",
        "label": "_balances",
        "offset": 0,
        "slot": "0",
        "type": "t_mapping(t_address,t_uint256)"
      },
      {
        "astId": 559,
        "contract": "contracts/Ticket.sol:Ticket",
        "label": "_allowances",
        "offset": 0,
        "slot": "1",
        "type": "t_mapping(t_address,t_mapping(t_address,t_uint256))"
      },
      {
        "astId": 561,
        "contract": "contracts/Ticket.sol:Ticket",
        "label": "_totalSupply",
        "offset": 0,
        "slot": "2",
        "type": "t_uint256"
      },
      {
        "astId": 563,
        "contract": "contracts/Ticket.sol:Ticket",
        "label": "_name",
        "offset": 0,
        "slot": "3",
        "type": "t_string_storage"
      },
      {
        "astId": 565,
        "contract": "contracts/Ticket.sol:Ticket",
        "label": "_symbol",
        "offset": 0,
        "slot": "4",
        "type": "t_string_storage"
      },
      {
        "astId": 1249,
        "contract": "contracts/Ticket.sol:Ticket",
        "label": "_nonces",
        "offset": 0,
        "slot": "5",
        "type": "t_mapping(t_address,t_struct(Counter)1981_storage)"
      },
      {
        "astId": 1257,
        "contract": "contracts/Ticket.sol:Ticket",
        "label": "_PERMIT_TYPEHASH_DEPRECATED_SLOT",
        "offset": 0,
        "slot": "6",
        "type": "t_bytes32"
      }
    ],
    "types": {
      "t_address": {
        "encoding": "inplace",
        "label": "address",
        "numberOfBytes": "20"
      },
      "t_bytes32": {
        "encoding": "inplace",
        "label": "bytes32",
        "numberOfBytes": "32"
      },
      "t_mapping(t_address,t_mapping(t_address,t_uint256))": {
        "encoding": "mapping",
        "key": "t_address",
        "label": "mapping(address => mapping(address => uint256))",
        "numberOfBytes": "32",
        "value": "t_mapping(t_address,t_uint256)"
      },
      "t_mapping(t_address,t_struct(Counter)1981_storage)": {
        "encoding": "mapping",
        "key": "t_address",
        "label": "mapping(address => struct Counters.Counter)",
        "numberOfBytes": "32",
        "value": "t_struct(Counter)1981_storage"
      },
      "t_mapping(t_address,t_uint256)": {
        "encoding": "mapping",
        "key": "t_address",
        "label": "mapping(address => uint256)",
        "numberOfBytes": "32",
        "value": "t_uint256"
      },
      "t_string_storage": {
        "encoding": "bytes",
        "label": "string",
        "numberOfBytes": "32"
      },
      "t_struct(Counter)1981_storage": {
        "encoding": "inplace",
        "label": "struct Counters.Counter",
        "members": [
          {
            "astId": 1980,
            "contract": "contracts/Ticket.sol:Ticket",
            "label": "_value",
            "offset": 0,
            "slot": "0",
            "type": "t_uint256"
          }
        ],
        "numberOfBytes": "32"
      },
      "t_uint256": {
        "encoding": "inplace",
        "label": "uint256",
        "numberOfBytes": "32"
      }
    }
  }
}