{
  "address": "0x319Ad4222c47e6968c9285DE45C4826efb2BBAb9",
  "abi": [
    {
      "inputs": [
        {
          "internalType": "address",
          "name": "_manager",
          "type": "address"
        },
        {
          "internalType": "uint32",
          "name": "_drawId",
          "type": "uint32"
        },
        {
          "internalType": "string",
          "name": "_betCoin",
          "type": "string"
        },
        {
          "internalType": "uint256",
          "name": "_beaconPeriodStart",
          "type": "uint256"
        },
        {
          "internalType": "uint32",
          "name": "_drawPeriodSeconds",
          "type": "uint32"
        }
      ],
      "stateMutability": "nonpayable",
      "type": "constructor"
    },
    {
      "anonymous": false,
      "inputs": [
        {
          "indexed": true,
          "internalType": "address",
          "name": "user",
          "type": "address"
        },
        {
          "indexed": true,
          "internalType": "uint32",
          "name": "drawId",
          "type": "uint32"
        },
        {
          "indexed": false,
          "internalType": "uint256",
          "name": "payout",
          "type": "uint256"
        }
      ],
      "name": "ClaimedDraw",
      "type": "event"
    },
    {
      "anonymous": false,
      "inputs": [
        {
          "indexed": true,
          "internalType": "address",
          "name": "user",
          "type": "address"
        },
        {
          "indexed": true,
          "internalType": "contract ITicket",
          "name": "token",
          "type": "address"
        },
        {
          "indexed": false,
          "internalType": "uint256",
          "name": "amount",
          "type": "uint256"
        }
      ],
      "name": "Deposited",
      "type": "event"
    },
    {
      "anonymous": false,
      "inputs": [
        {
          "indexed": true,
          "internalType": "address",
          "name": "previousOwner",
          "type": "address"
        },
        {
          "indexed": true,
          "internalType": "address",
          "name": "newOwner",
          "type": "address"
        }
      ],
      "name": "OwnershipTransferred",
      "type": "event"
    },
    {
      "anonymous": false,
      "inputs": [
        {
          "indexed": true,
          "internalType": "uint32",
          "name": "drawId",
          "type": "uint32"
        },
        {
          "indexed": false,
          "internalType": "uint8",
          "name": "result",
          "type": "uint8"
        }
      ],
      "name": "ResultSet",
      "type": "event"
    },
    {
      "anonymous": false,
      "inputs": [
        {
          "indexed": true,
          "internalType": "bytes32",
          "name": "role",
          "type": "bytes32"
        },
        {
          "indexed": true,
          "internalType": "bytes32",
          "name": "previousAdminRole",
          "type": "bytes32"
        },
        {
          "indexed": true,
          "internalType": "bytes32",
          "name": "newAdminRole",
          "type": "bytes32"
        }
      ],
      "name": "RoleAdminChanged",
      "type": "event"
    },
    {
      "anonymous": false,
      "inputs": [
        {
          "indexed": true,
          "internalType": "bytes32",
          "name": "role",
          "type": "bytes32"
        },
        {
          "indexed": true,
          "internalType": "address",
          "name": "account",
          "type": "address"
        },
        {
          "indexed": true,
          "internalType": "address",
          "name": "sender",
          "type": "address"
        }
      ],
      "name": "RoleGranted",
      "type": "event"
    },
    {
      "anonymous": false,
      "inputs": [
        {
          "indexed": true,
          "internalType": "bytes32",
          "name": "role",
          "type": "bytes32"
        },
        {
          "indexed": true,
          "internalType": "address",
          "name": "account",
          "type": "address"
        },
        {
          "indexed": true,
          "internalType": "address",
          "name": "sender",
          "type": "address"
        }
      ],
      "name": "RoleRevoked",
      "type": "event"
    },
    {
      "inputs": [],
      "name": "DEFAULT_ADMIN_ROLE",
      "outputs": [
        {
          "internalType": "bytes32",
          "name": "",
          "type": "bytes32"
        }
      ],
      "stateMutability": "view",
      "type": "function"
    },
    {
      "inputs": [],
      "name": "MANAGER_ROLE",
      "outputs": [
        {
          "internalType": "bytes32",
          "name": "",
          "type": "bytes32"
        }
      ],
      "stateMutability": "view",
      "type": "function"
    },
    {
      "inputs": [],
      "name": "TIERS_LENGTH",
      "outputs": [
        {
          "internalType": "uint8",
          "name": "",
          "type": "uint8"
        }
      ],
      "stateMutability": "view",
      "type": "function"
    },
    {
      "inputs": [],
      "name": "VERSION",
      "outputs": [
        {
          "internalType": "string",
          "name": "",
          "type": "string"
        }
      ],
      "stateMutability": "view",
      "type": "function"
    },
    {
      "inputs": [],
      "name": "balance",
      "outputs": [
        {
          "internalType": "uint256",
          "name": "",
          "type": "uint256"
        }
      ],
      "stateMutability": "view",
      "type": "function"
    },
    {
      "inputs": [],
      "name": "claim",
      "outputs": [
        {
          "internalType": "uint256",
          "name": "",
          "type": "uint256"
        }
      ],
      "stateMutability": "nonpayable",
      "type": "function"
    },
    {
      "inputs": [
        {
          "internalType": "bool",
          "name": "_bet",
          "type": "bool"
        }
      ],
      "name": "depositTo",
      "outputs": [],
      "stateMutability": "payable",
      "type": "function"
    },
    {
      "inputs": [],
      "name": "drawPeriodEndAt",
      "outputs": [
        {
          "internalType": "uint256",
          "name": "",
          "type": "uint256"
        }
      ],
      "stateMutability": "view",
      "type": "function"
    },
    {
      "inputs": [],
      "name": "drawRemainingSeconds",
      "outputs": [
        {
          "internalType": "uint256",
          "name": "",
          "type": "uint256"
        }
      ],
      "stateMutability": "view",
      "type": "function"
    },
    {
      "inputs": [
        {
          "internalType": "bool",
          "name": "_bet",
          "type": "bool"
        }
      ],
      "name": "getAccountedBalance",
      "outputs": [
        {
          "internalType": "uint256",
          "name": "",
          "type": "uint256"
        }
      ],
      "stateMutability": "view",
      "type": "function"
    },
    {
      "inputs": [],
      "name": "getBetCoin",
      "outputs": [
        {
          "internalType": "string",
          "name": "",
          "type": "string"
        }
      ],
      "stateMutability": "view",
      "type": "function"
    },
    {
      "inputs": [],
      "name": "getDrawId",
      "outputs": [
        {
          "internalType": "uint32",
          "name": "",
          "type": "uint32"
        }
      ],
      "stateMutability": "view",
      "type": "function"
    },
    {
      "inputs": [],
      "name": "getResults",
      "outputs": [
        {
          "internalType": "uint8[]",
          "name": "",
          "type": "uint8[]"
        }
      ],
      "stateMutability": "view",
      "type": "function"
    },
    {
      "inputs": [
        {
          "internalType": "bytes32",
          "name": "role",
          "type": "bytes32"
        }
      ],
      "name": "getRoleAdmin",
      "outputs": [
        {
          "internalType": "bytes32",
          "name": "",
          "type": "bytes32"
        }
      ],
      "stateMutability": "view",
      "type": "function"
    },
    {
      "inputs": [
        {
          "internalType": "bool",
          "name": "_bet",
          "type": "bool"
        }
      ],
      "name": "getTicket",
      "outputs": [
        {
          "internalType": "contract ITicket",
          "name": "",
          "type": "address"
        }
      ],
      "stateMutability": "view",
      "type": "function"
    },
    {
      "inputs": [
        {
          "internalType": "bytes32",
          "name": "role",
          "type": "bytes32"
        },
        {
          "internalType": "address",
          "name": "account",
          "type": "address"
        }
      ],
      "name": "grantRole",
      "outputs": [],
      "stateMutability": "nonpayable",
      "type": "function"
    },
    {
      "inputs": [
        {
          "internalType": "bytes32",
          "name": "role",
          "type": "bytes32"
        },
        {
          "internalType": "address",
          "name": "account",
          "type": "address"
        }
      ],
      "name": "hasRole",
      "outputs": [
        {
          "internalType": "bool",
          "name": "",
          "type": "bool"
        }
      ],
      "stateMutability": "view",
      "type": "function"
    },
    {
      "inputs": [],
      "name": "isDrawOver",
      "outputs": [
        {
          "internalType": "bool",
          "name": "",
          "type": "bool"
        }
      ],
      "stateMutability": "view",
      "type": "function"
    },
    {
      "inputs": [],
      "name": "owner",
      "outputs": [
        {
          "internalType": "address",
          "name": "",
          "type": "address"
        }
      ],
      "stateMutability": "view",
      "type": "function"
    },
    {
      "inputs": [
        {
          "internalType": "uint8",
          "name": "_result",
          "type": "uint8"
        }
      ],
      "name": "pushResult",
      "outputs": [
        {
          "internalType": "bool",
          "name": "",
          "type": "bool"
        }
      ],
      "stateMutability": "nonpayable",
      "type": "function"
    },
    {
      "inputs": [],
      "name": "renounceOwnership",
      "outputs": [],
      "stateMutability": "nonpayable",
      "type": "function"
    },
    {
      "inputs": [
        {
          "internalType": "bytes32",
          "name": "role",
          "type": "bytes32"
        },
        {
          "internalType": "address",
          "name": "account",
          "type": "address"
        }
      ],
      "name": "renounceRole",
      "outputs": [],
      "stateMutability": "nonpayable",
      "type": "function"
    },
    {
      "inputs": [
        {
          "internalType": "bytes32",
          "name": "role",
          "type": "bytes32"
        },
        {
          "internalType": "address",
          "name": "account",
          "type": "address"
        }
      ],
      "name": "revokeRole",
      "outputs": [],
      "stateMutability": "nonpayable",
      "type": "function"
    },
    {
      "inputs": [
        {
          "internalType": "contract ITicket",
          "name": "_yesTicket",
          "type": "address"
        },
        {
          "internalType": "contract ITicket",
          "name": "_noTicket",
          "type": "address"
        }
      ],
      "name": "setTicket",
      "outputs": [
        {
          "internalType": "bool",
          "name": "",
          "type": "bool"
        }
      ],
      "stateMutability": "nonpayable",
      "type": "function"
    },
    {
      "inputs": [
        {
          "internalType": "bytes4",
          "name": "interfaceId",
          "type": "bytes4"
        }
      ],
      "name": "supportsInterface",
      "outputs": [
        {
          "internalType": "bool",
          "name": "",
          "type": "bool"
        }
      ],
      "stateMutability": "view",
      "type": "function"
    },
    {
      "inputs": [
        {
          "internalType": "address",
          "name": "newOwner",
          "type": "address"
        }
      ],
      "name": "transferOwnership",
      "outputs": [],
      "stateMutability": "nonpayable",
      "type": "function"
    }
  ],
  "transactionHash": "0xf16e6d9df78eb2b569ce57e41a895ed04e6f57b26820801b97f7708fb2340aa7",
  "args": [
    "0xC40A27eA8FacfBF2be191734a0E9Fe90011D1C6e",
    1,
    "fantom",
    1654905600,
    1123200
  ],
  "numDeployments": 1,
  "solcInputHash": "3eec48c3aef0f1739326207c00df0688",
  "bytecode": "0x60806040523480156200001157600080fd5b5060405162003295380380620032958339818101604052810190620000379190620004a3565b620000576200004b620000fe60201b60201c565b6200010660201b60201c565b600160028190555083600860006101000a81548163ffffffff021916908363ffffffff1602179055508260059080519060200190620000989291906200033c565b508160078190555080600660006101000a81548163ffffffff021916908363ffffffff160217905550620000f37f241ecf16d79d0f8dbfb92cbc07fe17840425976cf0667f022fe9877caa831b0886620001ca60201b60201c565b50505050506200074a565b600033905090565b60008060009054906101000a900473ffffffffffffffffffffffffffffffffffffffff169050816000806101000a81548173ffffffffffffffffffffffffffffffffffffffff021916908373ffffffffffffffffffffffffffffffffffffffff1602179055508173ffffffffffffffffffffffffffffffffffffffff168173ffffffffffffffffffffffffffffffffffffffff167f8be0079c531659141344cd1fd0a4f28419497f9722a3daafe3b4186f6b6457e060405160405180910390a35050565b620001dc8282620001e060201b60201c565b5050565b620001f28282620002d160201b60201c565b620002cd57600180600084815260200190815260200160002060000160008373ffffffffffffffffffffffffffffffffffffffff1673ffffffffffffffffffffffffffffffffffffffff16815260200190815260200160002060006101000a81548160ff02191690831515021790555062000272620000fe60201b60201c565b73ffffffffffffffffffffffffffffffffffffffff168173ffffffffffffffffffffffffffffffffffffffff16837f2f8788117e7eff1d82e926ec794901d17c78024a50270940304540a733656f0d60405160405180910390a45b5050565b60006001600084815260200190815260200160002060000160008373ffffffffffffffffffffffffffffffffffffffff1673ffffffffffffffffffffffffffffffffffffffff16815260200190815260200160002060009054906101000a900460ff16905092915050565b8280546200034a9062000621565b90600052602060002090601f0160209004810192826200036e5760008555620003ba565b82601f106200038957805160ff1916838001178555620003ba565b82800160010185558215620003ba579182015b82811115620003b95782518255916020019190600101906200039c565b5b509050620003c99190620003cd565b5090565b5b80821115620003e8576000816000905550600101620003ce565b5090565b600062000403620003fd8462000567565b6200053e565b9050828152602081018484840111156200041c57600080fd5b62000429848285620005eb565b509392505050565b6000815190506200044281620006fc565b92915050565b600082601f8301126200045a57600080fd5b81516200046c848260208601620003ec565b91505092915050565b600081519050620004868162000716565b92915050565b6000815190506200049d8162000730565b92915050565b600080600080600060a08688031215620004bc57600080fd5b6000620004cc8882890162000431565b9550506020620004df888289016200048c565b945050604086015167ffffffffffffffff811115620004fd57600080fd5b6200050b8882890162000448565b93505060606200051e8882890162000475565b925050608062000531888289016200048c565b9150509295509295909350565b60006200054a6200055d565b905062000558828262000657565b919050565b6000604051905090565b600067ffffffffffffffff821115620005855762000584620006bc565b5b6200059082620006eb565b9050602081019050919050565b6000620005aa82620005b1565b9050919050565b600073ffffffffffffffffffffffffffffffffffffffff82169050919050565b6000819050919050565b600063ffffffff82169050919050565b60005b838110156200060b578082015181840152602081019050620005ee565b838111156200061b576000848401525b50505050565b600060028204905060018216806200063a57607f821691505b602082108114156200065157620006506200068d565b5b50919050565b6200066282620006eb565b810181811067ffffffffffffffff82111715620006845762000683620006bc565b5b80604052505050565b7f4e487b7100000000000000000000000000000000000000000000000000000000600052602260045260246000fd5b7f4e487b7100000000000000000000000000000000000000000000000000000000600052604160045260246000fd5b6000601f19601f8301169050919050565b62000707816200059d565b81146200071357600080fd5b50565b6200072181620005d1565b81146200072d57600080fd5b50565b6200073b81620005db565b81146200074757600080fd5b50565b612b3b806200075a6000396000f3fe6080604052600436106101815760003560e01c806389c25941116100d1578063d603f4461161008a578063f2fde38b11610064578063f2fde38b1461057b578063f6f7fa30146105a4578063f8d0ca4c146105e1578063ffa1ad741461060c57610181565b8063d603f446146104e8578063e39abd2e14610513578063ec87621c1461055057610181565b806389c25941146103d65780638da5cb5b1461040157806391d148541461042c578063a217fddf14610469578063b69ef8a814610494578063d547741f146104bf57610181565b80634717f97c1161013e57806353b86b671161011857806353b86b671461032c5780635ad3097714610369578063677241b014610394578063715018a6146103bf57610181565b80634717f97c146102ba5780634e71d92d146102e5578063508c5e241461031057610181565b806301ffc9a71461018657806310f1b237146101c3578063248a9ca3146101ee5780632f2ff15d1461022b57806336568abe14610254578063413333de1461027d575b600080fd5b34801561019257600080fd5b506101ad60048036038101906101a89190611e19565b610637565b6040516101ba9190612281565b60405180910390f35b3480156101cf57600080fd5b506101d86106b1565b6040516101e5919061242f565b60405180910390f35b3480156101fa57600080fd5b5061021560048036038101906102109190611db4565b6106cb565b604051610222919061229c565b60405180910390f35b34801561023757600080fd5b50610252600480360381019061024d9190611ddd565b6106eb565b005b34801561026057600080fd5b5061027b60048036038101906102769190611ddd565b61070c565b005b34801561028957600080fd5b506102a4600480360381019061029f9190611d8b565b61078f565b6040516102b19190612414565b60405180910390f35b3480156102c657600080fd5b506102cf6107a1565b6040516102dc919061225f565b60405180910390f35b3480156102f157600080fd5b506102fa61081f565b6040516103079190612414565b60405180910390f35b61032a60048036038101906103259190611d8b565b610ac8565b005b34801561033857600080fd5b50610353600480360381019061034e9190611e42565b610be5565b6040516103609190612281565b60405180910390f35b34801561037557600080fd5b5061037e610ef1565b60405161038b9190612414565b60405180910390f35b3480156103a057600080fd5b506103a9610f30565b6040516103b691906122d2565b60405180910390f35b3480156103cb57600080fd5b506103d4610fc2565b005b3480156103e257600080fd5b506103eb61104a565b6040516103f89190612414565b60405180910390f35b34801561040d57600080fd5b50610416611059565b604051610423919061221b565b60405180910390f35b34801561043857600080fd5b50610453600480360381019061044e9190611ddd565b611082565b6040516104609190612281565b60405180910390f35b34801561047557600080fd5b5061047e6110ed565b60405161048b919061229c565b60405180910390f35b3480156104a057600080fd5b506104a96110f4565b6040516104b69190612414565b60405180910390f35b3480156104cb57600080fd5b506104e660048036038101906104e19190611ddd565b611103565b005b3480156104f457600080fd5b506104fd611124565b60405161050a9190612281565b60405180910390f35b34801561051f57600080fd5b5061053a60048036038101906105359190611d8b565b611133565b60405161054791906122b7565b60405180910390f35b34801561055c57600080fd5b5061056561118d565b604051610572919061229c565b60405180910390f35b34801561058757600080fd5b506105a2600480360381019061059d9190611d62565b6111b1565b005b3480156105b057600080fd5b506105cb60048036038101906105c69190611ea7565b6112a9565b6040516105d89190612281565b60405180910390f35b3480156105ed57600080fd5b506105f6611374565b604051610603919061244a565b60405180910390f35b34801561061857600080fd5b50610621611379565b60405161062e91906122d2565b60405180910390f35b60007f7965db0b000000000000000000000000000000000000000000000000000000007bffffffffffffffffffffffffffffffffffffffffffffffffffffffff1916827bffffffffffffffffffffffffffffffffffffffffffffffffffffffff191614806106aa57506106a9826113b2565b5b9050919050565b6000600860009054906101000a900463ffffffff16905090565b600060016000838152602001908152602001600020600101549050919050565b6106f4826106cb565b6106fd8161141c565b6107078383611430565b505050565b610714611510565b73ffffffffffffffffffffffffffffffffffffffff168173ffffffffffffffffffffffffffffffffffffffff1614610781576040517f08c379a0000000000000000000000000000000000000000000000000000000008152600401610778906123f4565b60405180910390fd5b61078b8282611518565b5050565b600061079a826115fa565b9050919050565b6060600980548060200260200160405190810160405280929190818152602001828054801561081557602002820191906000526020600020906000905b82829054906101000a900460ff1660ff16815260200190600101906020826000010492830192600103820291508084116107de5790505b5050505050905090565b60006108296116d6565b610868576040517f08c379a000000000000000000000000000000000000000000000000000000000815260040161085f90612374565b60405180910390fd5b60006108726116ef565b9050600061087f826115fa565b90506000826108b057600460009054906101000a900473ffffffffffffffffffffffffffffffffffffffff166108d4565b600360009054906101000a900473ffffffffffffffffffffffffffffffffffffffff165b905060008173ffffffffffffffffffffffffffffffffffffffff166370a08231336040518263ffffffff1660e01b8152600401610911919061221b565b60206040518083038186803b15801561092957600080fd5b505afa15801561093d573d6000803e3d6000fd5b505050506040513d601f19601f820116820180604052508101906109619190611e7e565b90506000811115610abe576000610976611799565b90508273ffffffffffffffffffffffffffffffffffffffff166390596dd133846040518363ffffffff1660e01b81526004016109b3929190612236565b600060405180830381600087803b1580156109cd57600080fd5b505af11580156109e1573d6000803e3d6000fd5b505050506000610a0c6109fd86856117a190919063ffffffff16565b836117b790919063ffffffff16565b905060003373ffffffffffffffffffffffffffffffffffffffff1682604051610a3490612206565b60006040518083038185875af1925050503d8060008114610a71576040519150601f19603f3d011682016040523d82523d6000602084013e610a76565b606091505b5050905080610aba576040517f08c379a0000000000000000000000000000000000000000000000000000000008152600401610ab190612334565b60405180910390fd5b5050505b8094505050505090565b600280541415610b0d576040517f08c379a0000000000000000000000000000000000000000000000000000000008152600401610b04906123d4565b60405180910390fd5b60028081905550600081610b4357600460009054906101000a900473ffffffffffffffffffffffffffffffffffffffff16610b67565b600360009054906101000a900473ffffffffffffffffffffffffffffffffffffffff165b9050610b743334836117cd565b8073ffffffffffffffffffffffffffffffffffffffff163373ffffffffffffffffffffffffffffffffffffffff167f8752a472e571a816aea92eec8dae9baf628e840f4929fbcc2d155e6233ff68a734604051610bd19190612414565b60405180910390a350600160028190555050565b6000610bef611510565b73ffffffffffffffffffffffffffffffffffffffff16610c0d611059565b73ffffffffffffffffffffffffffffffffffffffff1614610c63576040517f08c379a0000000000000000000000000000000000000000000000000000000008152600401610c5a906123b4565b60405180910390fd5b600073ffffffffffffffffffffffffffffffffffffffff168373ffffffffffffffffffffffffffffffffffffffff161415610cd3576040517f08c379a0000000000000000000000000000000000000000000000000000000008152600401610cca90612354565b60405180910390fd5b600073ffffffffffffffffffffffffffffffffffffffff168273ffffffffffffffffffffffffffffffffffffffff161415610d43576040517f08c379a0000000000000000000000000000000000000000000000000000000008152600401610d3a90612354565b60405180910390fd5b600073ffffffffffffffffffffffffffffffffffffffff16600360009054906101000a900473ffffffffffffffffffffffffffffffffffffffff1673ffffffffffffffffffffffffffffffffffffffff1614610dd4576040517f08c379a0000000000000000000000000000000000000000000000000000000008152600401610dcb90612394565b60405180910390fd5b600073ffffffffffffffffffffffffffffffffffffffff16600460009054906101000a900473ffffffffffffffffffffffffffffffffffffffff1673ffffffffffffffffffffffffffffffffffffffff1614610e65576040517f08c379a0000000000000000000000000000000000000000000000000000000008152600401610e5c90612394565b60405180910390fd5b82600360006101000a81548173ffffffffffffffffffffffffffffffffffffffff021916908373ffffffffffffffffffffffffffffffffffffffff16021790555081600460006101000a81548173ffffffffffffffffffffffffffffffffffffffff021916908373ffffffffffffffffffffffffffffffffffffffff1602179055506001905092915050565b600080610efc61183f565b90506000610f0861186c565b9050808211610f1c57600092505050610f2d565b8082610f2891906125b1565b925050505b90565b606060058054610f3f90612713565b80601f0160208091040260200160405190810160405280929190818152602001828054610f6b90612713565b8015610fb85780601f10610f8d57610100808354040283529160200191610fb8565b820191906000526020600020905b815481529060010190602001808311610f9b57829003601f168201915b5050505050905090565b610fca611510565b73ffffffffffffffffffffffffffffffffffffffff16610fe8611059565b73ffffffffffffffffffffffffffffffffffffffff161461103e576040517f08c379a0000000000000000000000000000000000000000000000000000000008152600401611035906123b4565b60405180910390fd5b6110486000611874565b565b600061105461183f565b905090565b60008060009054906101000a900473ffffffffffffffffffffffffffffffffffffffff16905090565b60006001600084815260200190815260200160002060000160008373ffffffffffffffffffffffffffffffffffffffff1673ffffffffffffffffffffffffffffffffffffffff16815260200190815260200160002060009054906101000a900460ff16905092915050565b6000801b81565b60006110fe611799565b905090565b61110c826106cb565b6111158161141c565b61111f8383611518565b505050565b600061112e6116d6565b905090565b60008161116257600460009054906101000a900473ffffffffffffffffffffffffffffffffffffffff16611186565b600360009054906101000a900473ffffffffffffffffffffffffffffffffffffffff165b9050919050565b7f241ecf16d79d0f8dbfb92cbc07fe17840425976cf0667f022fe9877caa831b0881565b6111b9611510565b73ffffffffffffffffffffffffffffffffffffffff166111d7611059565b73ffffffffffffffffffffffffffffffffffffffff161461122d576040517f08c379a0000000000000000000000000000000000000000000000000000000008152600401611224906123b4565b60405180910390fd5b600073ffffffffffffffffffffffffffffffffffffffff168173ffffffffffffffffffffffffffffffffffffffff16141561129d576040517f08c379a000000000000000000000000000000000000000000000000000000000815260040161129490612314565b60405180910390fd5b6112a681611874565b50565b60007f241ecf16d79d0f8dbfb92cbc07fe17840425976cf0667f022fe9877caa831b086112d58161141c565b60098390806001815401808255809150506001900390600052602060002090602091828204019190069091909190916101000a81548160ff021916908360ff160217905550600860009054906101000a900463ffffffff1663ffffffff167fda20efca129f9bae17c9366df24b86fefbebdff4a388293be79e22c5cd871f8c84604051611362919061244a565b60405180910390a26001915050919050565b600d81565b6040518060400160405280600581526020017f312e302e3000000000000000000000000000000000000000000000000000000081525081565b60007f01ffc9a7000000000000000000000000000000000000000000000000000000007bffffffffffffffffffffffffffffffffffffffffffffffffffffffff1916827bffffffffffffffffffffffffffffffffffffffffffffffffffffffff1916149050919050565b61142d81611428611510565b611938565b50565b61143a8282611082565b61150c57600180600084815260200190815260200160002060000160008373ffffffffffffffffffffffffffffffffffffffff1673ffffffffffffffffffffffffffffffffffffffff16815260200190815260200160002060006101000a81548160ff0219169083151502179055506114b1611510565b73ffffffffffffffffffffffffffffffffffffffff168173ffffffffffffffffffffffffffffffffffffffff16837f2f8788117e7eff1d82e926ec794901d17c78024a50270940304540a733656f0d60405160405180910390a45b5050565b600033905090565b6115228282611082565b156115f65760006001600084815260200190815260200160002060000160008373ffffffffffffffffffffffffffffffffffffffff1673ffffffffffffffffffffffffffffffffffffffff16815260200190815260200160002060006101000a81548160ff02191690831515021790555061159b611510565b73ffffffffffffffffffffffffffffffffffffffff168173ffffffffffffffffffffffffffffffffffffffff16837ff6391f5c32d9c69d2a47ea670b442974b53935d1edc7fd64eb21e047a839171b60405160405180910390a45b5050565b6000808261162a57600460009054906101000a900473ffffffffffffffffffffffffffffffffffffffff1661164e565b600360009054906101000a900473ffffffffffffffffffffffffffffffffffffffff165b90508073ffffffffffffffffffffffffffffffffffffffff166318160ddd6040518163ffffffff1660e01b815260040160206040518083038186803b15801561169657600080fd5b505afa1580156116aa573d6000803e3d6000fd5b505050506040513d601f19601f820116820180604052508101906116ce9190611e7e565b915050919050565b60006116e061186c565b6116e861183f565b1115905090565b6000806000905060005b60098054905081101561178d57600160098281548110611742577f4e487b7100000000000000000000000000000000000000000000000000000000600052603260045260246000fd5b90600052602060002090602091828204019190069054906101000a900460ff1660ff16141561177a57818061177690612745565b9250505b808061178590612745565b9150506116f9565b50600881101591505090565b600047905090565b600081836117af9190612526565b905092915050565b600081836117c59190612557565b905092915050565b8073ffffffffffffffffffffffffffffffffffffffff16635d7b075884846040518363ffffffff1660e01b8152600401611808929190612236565b600060405180830381600087803b15801561182257600080fd5b505af1158015611836573d6000803e3d6000fd5b50505050505050565b6000600660009054906101000a900463ffffffff1663ffffffff1660075461186791906124d0565b905090565b600042905090565b60008060009054906101000a900473ffffffffffffffffffffffffffffffffffffffff169050816000806101000a81548173ffffffffffffffffffffffffffffffffffffffff021916908373ffffffffffffffffffffffffffffffffffffffff1602179055508173ffffffffffffffffffffffffffffffffffffffff168173ffffffffffffffffffffffffffffffffffffffff167f8be0079c531659141344cd1fd0a4f28419497f9722a3daafe3b4186f6b6457e060405160405180910390a35050565b6119428282611082565b6119d1576119678173ffffffffffffffffffffffffffffffffffffffff1660146119d5565b6119758360001c60206119d5565b6040516020016119869291906121cc565b6040516020818303038152906040526040517f08c379a00000000000000000000000000000000000000000000000000000000081526004016119c891906122d2565b60405180910390fd5b5050565b6060600060028360026119e89190612557565b6119f291906124d0565b67ffffffffffffffff811115611a31577f4e487b7100000000000000000000000000000000000000000000000000000000600052604160045260246000fd5b6040519080825280601f01601f191660200182016040528015611a635781602001600182028036833780820191505090505b5090507f300000000000000000000000000000000000000000000000000000000000000081600081518110611ac1577f4e487b7100000000000000000000000000000000000000000000000000000000600052603260045260246000fd5b60200101907effffffffffffffffffffffffffffffffffffffffffffffffffffffffffffff1916908160001a9053507f780000000000000000000000000000000000000000000000000000000000000081600181518110611b4b577f4e487b7100000000000000000000000000000000000000000000000000000000600052603260045260246000fd5b60200101907effffffffffffffffffffffffffffffffffffffffffffffffffffffffffffff1916908160001a90535060006001846002611b8b9190612557565b611b9591906124d0565b90505b6001811115611c81577f3031323334353637383961626364656600000000000000000000000000000000600f861660108110611bfd577f4e487b7100000000000000000000000000000000000000000000000000000000600052603260045260246000fd5b1a60f81b828281518110611c3a577f4e487b7100000000000000000000000000000000000000000000000000000000600052603260045260246000fd5b60200101907effffffffffffffffffffffffffffffffffffffffffffffffffffffffffffff1916908160001a905350600485901c945080611c7a906126e9565b9050611b98565b5060008414611cc5576040517f08c379a0000000000000000000000000000000000000000000000000000000008152600401611cbc906122f4565b60405180910390fd5b8091505092915050565b600081359050611cde81612a64565b92915050565b600081359050611cf381612a7b565b92915050565b600081359050611d0881612a92565b92915050565b600081359050611d1d81612aa9565b92915050565b600081359050611d3281612ac0565b92915050565b600081519050611d4781612ad7565b92915050565b600081359050611d5c81612aee565b92915050565b600060208284031215611d7457600080fd5b6000611d8284828501611ccf565b91505092915050565b600060208284031215611d9d57600080fd5b6000611dab84828501611ce4565b91505092915050565b600060208284031215611dc657600080fd5b6000611dd484828501611cf9565b91505092915050565b60008060408385031215611df057600080fd5b6000611dfe85828601611cf9565b9250506020611e0f85828601611ccf565b9150509250929050565b600060208284031215611e2b57600080fd5b6000611e3984828501611d0e565b91505092915050565b60008060408385031215611e5557600080fd5b6000611e6385828601611d23565b9250506020611e7485828601611d23565b9150509250929050565b600060208284031215611e9057600080fd5b6000611e9e84828501611d38565b91505092915050565b600060208284031215611eb957600080fd5b6000611ec784828501611d4d565b91505092915050565b6000611edc83836121ae565b60208301905092915050565b611ef1816125e5565b82525050565b6000611f0282612475565b611f0c8185612498565b9350611f1783612465565b8060005b83811015611f48578151611f2f8882611ed0565b9750611f3a8361248b565b925050600181019050611f1b565b5085935050505092915050565b611f5e816125f7565b82525050565b611f6d81612603565b82525050565b611f7c81612692565b82525050565b6000611f8d82612480565b611f9781856124b4565b9350611fa78185602086016126b6565b611fb08161281b565b840191505092915050565b6000611fc682612480565b611fd081856124c5565b9350611fe08185602086016126b6565b80840191505092915050565b6000611ff96020836124b4565b91506120048261282c565b602082019050919050565b600061201c6026836124b4565b915061202782612855565b604082019050919050565b600061203f6013836124b4565b915061204a826128a4565b602082019050919050565b6000612062601d836124b4565b915061206d826128cd565b602082019050919050565b6000612085601d836124b4565b9150612090826128f6565b602082019050919050565b60006120a86013836124b4565b91506120b38261291f565b602082019050919050565b60006120cb6020836124b4565b91506120d682612948565b602082019050919050565b60006120ee6017836124c5565b91506120f982612971565b601782019050919050565b6000612111601f836124b4565b915061211c8261299a565b602082019050919050565b60006121346004836124a9565b915061213f826129c3565b600482019050919050565b60006121576011836124c5565b9150612162826129ec565b601182019050919050565b600061217a602f836124b4565b915061218582612a15565b604082019050919050565b6121998161266b565b82525050565b6121a881612675565b82525050565b6121b781612685565b82525050565b6121c681612685565b82525050565b60006121d7826120e1565b91506121e38285611fbb565b91506121ee8261214a565b91506121fa8284611fbb565b91508190509392505050565b600061221182612127565b9150819050919050565b60006020820190506122306000830184611ee8565b92915050565b600060408201905061224b6000830185611ee8565b6122586020830184612190565b9392505050565b600060208201905081810360008301526122798184611ef7565b905092915050565b60006020820190506122966000830184611f55565b92915050565b60006020820190506122b16000830184611f64565b92915050565b60006020820190506122cc6000830184611f73565b92915050565b600060208201905081810360008301526122ec8184611f82565b905092915050565b6000602082019050818103600083015261230d81611fec565b9050919050565b6000602082019050818103600083015261232d8161200f565b9050919050565b6000602082019050818103600083015261234d81612032565b9050919050565b6000602082019050818103600083015261236d81612055565b9050919050565b6000602082019050818103600083015261238d81612078565b9050919050565b600060208201905081810360008301526123ad8161209b565b9050919050565b600060208201905081810360008301526123cd816120be565b9050919050565b600060208201905081810360008301526123ed81612104565b9050919050565b6000602082019050818103600083015261240d8161216d565b9050919050565b60006020820190506124296000830184612190565b92915050565b6000602082019050612444600083018461219f565b92915050565b600060208201905061245f60008301846121bd565b92915050565b6000819050602082019050919050565b600081519050919050565b600081519050919050565b6000602082019050919050565b600082825260208201905092915050565b600081905092915050565b600082825260208201905092915050565b600081905092915050565b60006124db8261266b565b91506124e68361266b565b9250827fffffffffffffffffffffffffffffffffffffffffffffffffffffffffffffffff0382111561251b5761251a61278e565b5b828201905092915050565b60006125318261266b565b915061253c8361266b565b92508261254c5761254b6127bd565b5b828204905092915050565b60006125628261266b565b915061256d8361266b565b9250817fffffffffffffffffffffffffffffffffffffffffffffffffffffffffffffffff04831182151516156125a6576125a561278e565b5b828202905092915050565b60006125bc8261266b565b91506125c78361266b565b9250828210156125da576125d961278e565b5b828203905092915050565b60006125f08261264b565b9050919050565b60008115159050919050565b6000819050919050565b60007fffffffff0000000000000000000000000000000000000000000000000000000082169050919050565b6000612644826125e5565b9050919050565b600073ffffffffffffffffffffffffffffffffffffffff82169050919050565b6000819050919050565b600063ffffffff82169050919050565b600060ff82169050919050565b600061269d826126a4565b9050919050565b60006126af8261264b565b9050919050565b60005b838110156126d45780820151818401526020810190506126b9565b838111156126e3576000848401525b50505050565b60006126f48261266b565b915060008214156127085761270761278e565b5b600182039050919050565b6000600282049050600182168061272b57607f821691505b6020821081141561273f5761273e6127ec565b5b50919050565b60006127508261266b565b91507fffffffffffffffffffffffffffffffffffffffffffffffffffffffffffffffff8214156127835761278261278e565b5b600182019050919050565b7f4e487b7100000000000000000000000000000000000000000000000000000000600052601160045260246000fd5b7f4e487b7100000000000000000000000000000000000000000000000000000000600052601260045260246000fd5b7f4e487b7100000000000000000000000000000000000000000000000000000000600052602260045260246000fd5b6000601f19601f8301169050919050565b7f537472696e67733a20686578206c656e67746820696e73756666696369656e74600082015250565b7f4f776e61626c653a206e6577206f776e657220697320746865207a65726f206160008201527f6464726573730000000000000000000000000000000000000000000000000000602082015250565b7f6661696c656420746f20636c61696d2045544800000000000000000000000000600082015250565b7f5469636b65742063616e6e6f74206265207a65726f2061646472657373000000600082015250565b7f5468697320726f756e6420686173206e6f7420656e6465642079657421000000600082015250565b7f5469636b657420616c7265616479207365742100000000000000000000000000600082015250565b7f4f776e61626c653a2063616c6c6572206973206e6f7420746865206f776e6572600082015250565b7f416363657373436f6e74726f6c3a206163636f756e7420000000000000000000600082015250565b7f5265656e7472616e637947756172643a207265656e7472616e742063616c6c00600082015250565b7f53656e7400000000000000000000000000000000000000000000000000000000600082015250565b7f206973206d697373696e6720726f6c6520000000000000000000000000000000600082015250565b7f416363657373436f6e74726f6c3a2063616e206f6e6c792072656e6f756e636560008201527f20726f6c657320666f722073656c660000000000000000000000000000000000602082015250565b612a6d816125e5565b8114612a7857600080fd5b50565b612a84816125f7565b8114612a8f57600080fd5b50565b612a9b81612603565b8114612aa657600080fd5b50565b612ab28161260d565b8114612abd57600080fd5b50565b612ac981612639565b8114612ad457600080fd5b50565b612ae08161266b565b8114612aeb57600080fd5b50565b612af781612685565b8114612b0257600080fd5b5056fea2646970667358221220bdd2c14d349c8def715cfb0ecf5909231d0be18653b0d2027f107ed7a886d8df64736f6c63430008040033",
  "devdoc": {
    "author": "The Unit",
    "kind": "dev",
    "methods": {
      "balance()": {
        "returns": {
          "_0": "The underlying balance of assets"
        }
      },
      "constructor": {
        "params": {
          "_beaconPeriodStart": "The time this round starts.",
          "_betCoin": "The coin to bet in this round",
          "_drawId": "The id of this round.",
          "_drawPeriodSeconds": "The duration of this round.",
          "_manager": "Address of the Prize Pool manager, who will set result everyday."
        }
      },
      "depositTo(bool)": {
        "params": {
          "bet": "The choice that user makes"
        }
      },
      "drawPeriodEndAt()": {
        "returns": {
          "_0": "The timestamp at which the beacon period ends."
        }
      },
      "drawRemainingSeconds()": {
        "returns": {
          "_0": "The number of seconds remaining until the prize can be awarded."
        }
      },
      "getAccountedBalance(bool)": {
        "returns": {
          "_0": "uint256 accountBalance"
        }
      },
      "getBetCoin()": {
        "returns": {
          "_0": "The bet coin."
        }
      },
      "getDrawId()": {
        "returns": {
          "_0": "The draw id."
        }
      },
      "getRoleAdmin(bytes32)": {
        "details": "Returns the admin role that controls `role`. See {grantRole} and {revokeRole}. To change a role's admin, use {_setRoleAdmin}."
      },
      "grantRole(bytes32,address)": {
        "details": "Grants `role` to `account`. If `account` had not been already granted `role`, emits a {RoleGranted} event. Requirements: - the caller must have ``role``'s admin role."
      },
      "hasRole(bytes32,address)": {
        "details": "Returns `true` if `account` has been granted `role`."
      },
      "isDrawOver()": {
        "returns": {
          "_0": "True if the beacon period is over, false otherwise"
        }
      },
      "owner()": {
        "details": "Returns the address of the current owner."
      },
      "renounceOwnership()": {
        "details": "Leaves the contract without owner. It will not be possible to call `onlyOwner` functions anymore. Can only be called by the current owner. NOTE: Renouncing ownership will leave the contract without an owner, thereby removing any functionality that is only available to the owner."
      },
      "renounceRole(bytes32,address)": {
        "details": "Revokes `role` from the calling account. Roles are often managed via {grantRole} and {revokeRole}: this function's purpose is to provide a mechanism for accounts to lose their privileges if they are compromised (such as when a trusted device is misplaced). If the calling account had been revoked `role`, emits a {RoleRevoked} event. Requirements: - the caller must be `account`."
      },
      "revokeRole(bytes32,address)": {
        "details": "Revokes `role` from `account`. If `account` had been granted `role`, emits a {RoleRevoked} event. Requirements: - the caller must have ``role``'s admin role."
      },
      "setTicket(address,address)": {
        "params": {
          "noTicket": "Address of the no ticket to set.",
          "yesTicket": "Address of the yes ticket to set."
        },
        "returns": {
          "_0": "True if ticket has been successfully set."
        }
      },
      "supportsInterface(bytes4)": {
        "details": "See {IERC165-supportsInterface}."
      },
      "transferOwnership(address)": {
        "details": "Transfers ownership of the contract to a new account (`newOwner`). Can only be called by the current owner."
      }
    },
    "stateVariables": {
      "drawId": {
        "details": "Starts at 1. This way we know that no Draw has been recorded at 0."
      }
    },
    "title": "The Unit PrizePool",
    "version": 1
  },
  "userdoc": {
    "kind": "user",
    "methods": {
      "VERSION()": {
        "notice": "Semver Version"
      },
      "constructor": {
        "notice": "Deploy the Prize Pool"
      },
      "depositTo(bool)": {
        "notice": "Deposit assets into the Prize Pool in exchange for tokens"
      },
      "drawPeriodEndAt()": {
        "notice": "Returns the timestamp at which the beacon period ends"
      },
      "drawRemainingSeconds()": {
        "notice": "Returns the number of seconds remaining until the prize can be awarded."
      },
      "getAccountedBalance(bool)": {
        "notice": "Read internal Ticket accounted balance."
      },
      "getTicket(bool)": {
        "notice": "Read ticket variable"
      },
      "isDrawOver()": {
        "notice": "Returns whether the beacon period is over"
      },
      "setTicket(address,address)": {
        "notice": "Set prize pool ticket."
      }
    },
    "notice": "People can bet in this prize pool on which coin will get in / fall out from The Unit",
    "version": 1
  },
  "storageLayout": {
    "storage": [
      {
        "astId": 400,
        "contract": "contracts/PrizePool.sol:PrizePool",
        "label": "_owner",
        "offset": 0,
        "slot": "0",
        "type": "t_address"
      },
      {
        "astId": 24,
        "contract": "contracts/PrizePool.sol:PrizePool",
        "label": "_roles",
        "offset": 0,
        "slot": "1",
        "type": "t_mapping(t_bytes32,t_struct(RoleData)19_storage)"
      },
      {
        "astId": 508,
        "contract": "contracts/PrizePool.sol:PrizePool",
        "label": "_status",
        "offset": 0,
        "slot": "2",
        "type": "t_uint256"
      },
      {
        "astId": 3802,
        "contract": "contracts/PrizePool.sol:PrizePool",
        "label": "yesTicket",
        "offset": 0,
        "slot": "3",
        "type": "t_contract(ITicket)4676"
      },
      {
        "astId": 3805,
        "contract": "contracts/PrizePool.sol:PrizePool",
        "label": "noTicket",
        "offset": 0,
        "slot": "4",
        "type": "t_contract(ITicket)4676"
      },
      {
        "astId": 3807,
        "contract": "contracts/PrizePool.sol:PrizePool",
        "label": "betCoin",
        "offset": 0,
        "slot": "5",
        "type": "t_string_storage"
      },
      {
        "astId": 3810,
        "contract": "contracts/PrizePool.sol:PrizePool",
        "label": "drawPeriodSeconds",
        "offset": 0,
        "slot": "6",
        "type": "t_uint32"
      },
      {
        "astId": 3813,
        "contract": "contracts/PrizePool.sol:PrizePool",
        "label": "drawPeriodStartedAt",
        "offset": 0,
        "slot": "7",
        "type": "t_uint256"
      },
      {
        "astId": 3816,
        "contract": "contracts/PrizePool.sol:PrizePool",
        "label": "drawId",
        "offset": 0,
        "slot": "8",
        "type": "t_uint32"
      },
      {
        "astId": 3822,
        "contract": "contracts/PrizePool.sol:PrizePool",
        "label": "results",
        "offset": 0,
        "slot": "9",
        "type": "t_array(t_uint8)dyn_storage"
      }
    ],
    "types": {
      "t_address": {
        "encoding": "inplace",
        "label": "address",
        "numberOfBytes": "20"
      },
      "t_array(t_uint8)dyn_storage": {
        "base": "t_uint8",
        "encoding": "dynamic_array",
        "label": "uint8[]",
        "numberOfBytes": "32"
      },
      "t_bool": {
        "encoding": "inplace",
        "label": "bool",
        "numberOfBytes": "1"
      },
      "t_bytes32": {
        "encoding": "inplace",
        "label": "bytes32",
        "numberOfBytes": "32"
      },
      "t_contract(ITicket)4676": {
        "encoding": "inplace",
        "label": "contract ITicket",
        "numberOfBytes": "20"
      },
      "t_mapping(t_address,t_bool)": {
        "encoding": "mapping",
        "key": "t_address",
        "label": "mapping(address => bool)",
        "numberOfBytes": "32",
        "value": "t_bool"
      },
      "t_mapping(t_bytes32,t_struct(RoleData)19_storage)": {
        "encoding": "mapping",
        "key": "t_bytes32",
        "label": "mapping(bytes32 => struct AccessControl.RoleData)",
        "numberOfBytes": "32",
        "value": "t_struct(RoleData)19_storage"
      },
      "t_string_storage": {
        "encoding": "bytes",
        "label": "string",
        "numberOfBytes": "32"
      },
      "t_struct(RoleData)19_storage": {
        "encoding": "inplace",
        "label": "struct AccessControl.RoleData",
        "members": [
          {
            "astId": 16,
            "contract": "contracts/PrizePool.sol:PrizePool",
            "label": "members",
            "offset": 0,
            "slot": "0",
            "type": "t_mapping(t_address,t_bool)"
          },
          {
            "astId": 18,
            "contract": "contracts/PrizePool.sol:PrizePool",
            "label": "adminRole",
            "offset": 0,
            "slot": "1",
            "type": "t_bytes32"
          }
        ],
        "numberOfBytes": "64"
      },
      "t_uint256": {
        "encoding": "inplace",
        "label": "uint256",
        "numberOfBytes": "32"
      },
      "t_uint32": {
        "encoding": "inplace",
        "label": "uint32",
        "numberOfBytes": "4"
      },
      "t_uint8": {
        "encoding": "inplace",
        "label": "uint8",
        "numberOfBytes": "1"
      }
    }
  }
}